:020000040000FA
:100000000C9473000C949B000C949B000C949B002C
:100010000C949B000C949B000C949B000C949B00F4
:100020000C949B000C949B000C949B000C949B00E4
:100030000C949B000C949B000C949B000C949B00D4
:100040000C940C080C949B000C94DA070C94B407E5
:100050000C949B000C949B000C949B000C949B00B4
:100060000C9456080C949B0000000000240027000C
:100070002A0000000000250028002B0000000000DE
:1000800023002600290000000008000201000003F0
:100090000407000000000000000031323A31343A19
:1000A0003232004F63742031322032303231001F3F
:1000B0001C1F1E1F1E1F1F1E1F1E1F0404040404DE
:1000C0000404040202020202020303030303030105
:1000D00002040810204080010204081020010204DC
:1000E00008102000820911241FBECFEFD8E0DEBF28
:1000F000CDBF11E0A0E0B1E0EAEBFDE102C0059068
:100100000D92A03EB107D9F723E0A0EEB1E001C007
:100110001D92A537B207E1F710E0C3E7D0E004C0B5
:100120002197FE010E94BB0EC237D107C9F70E947A
:10013000F4090C94DB0E0C94000008950895DC0182
:10014000ED91FC910190F081E02D0994AF92BF9266
:10015000CF92DF92EF92FF920F931F93CF93DF9393
:100160006C017B018B01040F151FEB015E01AE18C2
:10017000BF08C017D10759F06991D601ED91FC91E4
:100180000190F081E02DC6010995892B79F7C50111
:10019000DF91CF911F910F91FF90EF90DF90CF9063
:1001A000BF90AF900895FC01538D448D252F30E012
:1001B000842F90E0821B930B541710F0CF96089574
:1001C00001970895FC01918D828D981761F0A28DA1
:1001D000AE0FBF2FB11D5D968C91928D9F5F9F7367
:1001E000928F90E008958FEF9FEF0895FC01918D1D
:1001F000828D981731F0828DE80FF11D858D90E08A
:1002000008958FEF9FEF0895FC01918D228D892F26
:1002100090E0805C9F4F821B91098F73992708950E
:1002200088EA92E00E94040121E0892B09F420E091
:10023000822F089580E090E0892B29F00E94100120
:1002400081110C9400000895FC01A48DA80FB92F12
:10025000B11DA35ABF4F2C91848D90E001968F73EE
:100260009927848FA689B7892C93A089B1898C910D
:10027000837080648C93938D848D981306C002885C
:10028000F389E02D80818F7D80830895EF92FF9226
:100290000F931F93CF93DF93EC0181E0888F9B8DA9
:1002A0008C8D98131AC0E889F989808185FF15C063
:1002B0009FB7F894EE89FF896083E889F989808186
:1002C0008370806480839FBF81E090E0DF91CF9155
:1002D0001F910F91FF90EF900895F62E0B8D10E077
:1002E0000F5F1F4F0F731127E02E8C8D8E110CC0E6
:1002F0000FB607FCFACFE889F989808185FFF5CF31
:10030000CE010E942401F1CFEB8DEC0FFD2FF11DEA
:10031000E35AFF4FF0829FB7F8940B8FEA89FB896D
:1003200080818062CFCFCF93DF93EC01888D8823CB
:10033000B9F0AA89BB89E889F9898C9185FD03C048
:10034000808186FD0DC00FB607FCF7CF8C9185FF2D
:10035000F2CF808185FFEDCFCE010E942401E9CF4D
:10036000DF91CF910895833081F028F4813099F0A6
:100370008230A9F008958730A9F08830C9F0843020
:10038000B1F4809180008F7D03C0809180008F77D1
:1003900080938000089584B58F7784BD089584B5D7
:1003A0008F7DFBCF8091B0008F778093B000089550
:1003B0008091B0008F7DF9CFCF93DF93282F30E06D
:1003C000F901EA57FF4F8491F901E153FF4FD491AE
:1003D000F901E554FF4FC491CC23A1F081110E9493
:1003E000B301EC2FF0E0EE0FFF1FE458FF4FA59193
:1003F000B491EC91ED2381E090E009F480E0DF918D
:10040000CF91089580E090E0FACF1F93CF93DF93D0
:10041000282F30E0F901EA57FF4F8491F901E153A9
:10042000FF4FD491F901E554FF4FC491CC23A9F0BB
:10043000162F81110E94B301EC2FF0E0EE0FFF1F89
:10044000EE58FF4FA591B4918FB7F894EC9111112C
:1004500008C0D095DE23DC938FBFDF91CF911F9131
:100460000895DE2BF8CFCF93DF9390E0FC01E153AA
:10047000FF4F249185549F4FFC0184918823D1F034
:1004800090E0880F991FFC01E859FF4FA591B491A6
:10049000FC01EE58FF4FC591D491623071F49FB7C3
:1004A000F8943C91822F809583238C93E8812E2BA6
:1004B00028839FBFDF91CF9108958FB7F894EC9177
:1004C0002E2B2C938FBFF6CF8E50806480937C00B0
:1004D00080917A00806480937A0080917A0086FD12
:1004E000FCCF809178009091790008953FB7F894FF
:1004F0008091290290912A02A0912B02B0912C02A6
:1005000026B5A89B05C02F3F19F00196A11DB11D6E
:100510003FBFBA2FA92F982F8827BC01CD01620FAA
:10052000711D811D911D42E0660F771F881F991F65
:100530004A95D1F708958F929F92AF92BF92CF9232
:10054000DF92EF92FF924B015C010E9476026B01F9
:100550007C010E9476026C197D098E099F09683E14
:10056000734081059105A8F321E0821A9108A10842
:10057000B10888EEC80E83E0D81EE11CF11C81147E
:100580009104A104B10429F7FF90EF90DF90CF9080
:10059000BF90AF909F908F90089508958F929F92F3
:1005A000AF92BF92CF92DF92EF92FF92CF93DF9301
:1005B000EC016A017B0180E8C81A83E4D80A8DE661
:1005C000E80A88E3F80A8CE3882E912CA12CB12C40
:1005D000C701B601A50194010E94990E6D83CA015D
:1005E000B901A50194010E94990E6C83C701B6015F
:1005F00020E13EE040E050E00E94990ECA01B901BE
:1006000028E130E040E050E00E94990E6B83C70182
:10061000B60120E831E541E050E00E94990E1882D1
:1006200063E97EEF4881542F537081E009F080E048
:1006300090E0FC01E359FE4F2E173F0740F0FB010D
:10064000E81BF90B2E0F3F1F4F5F4883EBCF81E074
:1006500089838981682F6150770BFB01E155FF4F3A
:10066000E491511103C0823009F4EF5FF0E02E17DE
:100670003F0720F02E1B3F0B8F5FEACF2F5F2A83AF
:10068000DF91CF91FF90EF90DF90CF90BF90AF9030
:100690009F908F90089520910102260F3327331FDA
:1006A00021323105ECF420917E02FC0190E080E0E3
:1006B000243069F082E00895A09101022191AC01FB
:1006C0004F515E4FA40FB52FB11D2C930196861785
:1006D00098F380910102680F6093010280E0089511
:1006E00081E0089510927E0281E080937D02109255
:1006F000580261E082E10E94050261E083E10E940C
:100700000502E9EBF0E080818E7F808380818D7F20
:10071000808388E48093B80085E48093BC000895CA
:10072000CF93DF9391E09093E0018823B9F0C091DB
:10073000B800D091BA008091BC008A7B8093BC0045
:1007400060E082E10E94050260E083E10E94050210
:100750000E947203D093BA00C093B800DF91CF918A
:100760000895CF92DF92EF92FF920F931F93CF9352
:10077000DF93D091A70281E0D13208F09CC0C091F4
:10078000A6020E9476026B017C0180917E0281119B
:100790006CC082E080937E0281E080937D028FEFC7
:1007A00080937C0210927B02D0937A02A6E8B2E09A
:1007B000EAE5F2E080E0D8138DC0109259028091F2
:1007C0005902CC0FC82BC093590280915802813036
:1007D00009F084C0109258020E9476026B017C01DD
:1007E000809159028093BB00809180029091810298
:1007F000A0918202B0918302892B8A2B8B2BA1F0CE
:100800000E94760200918002109181022091820262
:10081000309183026C197D098E099F09061717070D
:100820002807390708F442C08091BC0083FDD8CF67
:1008300085EC8093BC000E9476026B017C01809164
:100840007E02823009F44CC080917C028F3F09F413
:1008500069C080917C02803209F466C080917C027C
:10086000803309F463C084E026C0809180029091B7
:100870008102A0918202B0918302892B8A2B8B2B5B
:1008800009F483CF0E9476020091800210918102C8
:1008900020918202309183026C197D098E099F0993
:1008A000061717072807390708F06FCF80917F02D6
:1008B0000E94900385E0109285021092A702109288
:1008C0008402DF91CF911F910F91FF90EF90DF9005
:1008D000CF9008959D9191938F5F6DCF85EEA9CFB5
:1008E0008091800290918102A0918202B091830256
:1008F000892B8A2B8B2B09F4A2CF0E9476020091C0
:1009000080021091810220918202309183026C1941
:100910007D098E099F09061717072807390708F070
:100920008ECFC4CF80E0C7CF82E0C5CF83E0C3CFF6
:10093000CF92DF92EF92FF920F931F93CF93DF93AB
:10094000D82FC62F613208F098C00E9476026B0142
:100950007C0180917E0281116BC081E080937E02D8
:1009600080937D029FEF90937C0210927B029C0FFC
:1009700090937A028093590280915902DD0FD82B0F
:10098000D093590280915802813009F078C01092BA
:1009900058020E9476026B017C018091590280937B
:1009A000BB008091800290918102A0918202B0915F
:1009B0008302892B8A2B8B2BA1F00E947602009157
:1009C00080021091810220918202309183026C1981
:1009D0007D098E099F09061717072807390708F4AC
:1009E00048C08091BC0083FDD8CF85EC8093BC00CB
:1009F0000E9476026B017C0180917E02813009F4B5
:100A000040C080917B028C1710F4C0917B02EAE514
:100A1000F2E0A8E3B2E080E08C1355C08C2FDF91A8
:100A2000CF911F910F91FF90EF90DF90CF9008959D
:100A30008091800290918102A0918202B091830204
:100A4000892B8A2B8B2B09F484CF0E94760200918C
:100A500080021091810220918202309183026C19F0
:100A60007D098E099F09061717072807390708F01F
:100A700070CF80917F020E949003C0E0CFCF85EEBF
:100A8000B5CF8091800290918102A0918202B091B5
:100A90008302892B8A2B8B2B09F4AECF0E9476021E
:100AA0000091800210918102209182023091830294
:100AB0006C197D098E099F09061717072807390742
:100AC00008F09ACFD6CF91919D938F5FA5CF0895CF
:100AD000E091320280913102E81730F4F0E0E85CF6
:100AE000FD4F808190E008958FEF9FEF08959091E2
:100AF0003202809131022FEF3FEF981748F4E92F2F
:100B0000F0E0E85CFD4F208130E09F5F909332027F
:100B1000C90108958091310290913202891B990B8D
:100B20000895CF92DF92EF92FF920F931F93CF938E
:100B3000DF937C01CB018A0120918402222389F07A
:100B4000EB016B01C40ED51ECC15DD0569F0699172
:100B5000D701ED91FC910190F081E02DC70109953D
:100B6000F3CF642F0E944B03C801DF91CF911F91F7
:100B70000F91FF90EF90DF90CF900895CF93DF9388
:100B80001F92CDB7DEB76983209184022223F9F04A
:100B90002091A702203258F021E030E0FC0133839D
:100BA000228390E080E00F90DF91CF9108958091B3
:100BB0008502E82FF0E0EA57FD4F998190838F5F1F
:100BC000809385028093A70281E090E0ECCF61E002
:100BD000CE0101960E944B03F7CFFC01248131E046
:100BE000309384022093A602109285021092A702ED
:100BF0008385682B85E493E00E94BE050C94B103C5
:100C000090E080E008950F931F93CF938C01C62F3F
:100C10000E94ED056C2F6460C8010E94ED056C2FE9
:100C20006B7FC8010E94ED0583EC90E00197F1F71E
:100C3000CF911F910F9108950F931F93CF93DF933F
:100C40008C01D62FC42F607F642B0E94030680E1A5
:100C5000D89FB00111246C2BC801DF91CF911F9157
:100C60000F910C94030640E061E089E693E00E9456
:100C70001C068BE39FE10197F1F70895CF93DF9373
:100C8000CDB7DEB728970FB6F894DEBF0FBECDBF45
:100C900098E0E0E4F1E0DE01119601900D929A9562
:100CA000E1F790917203961710F46FEF690F262FFA
:100CB00030E0220F331F41E050E04C0F5D1F240F46
:100CC000351FF9016081680F606840E089E693E0B4
:100CD00028960FB6F894DEBF0FBECDBFDF91CF913F
:100CE0000C941C0641E00E941C0681E090E00895EF
:100CF0000F931F93CF93DF938B01877098E0899FA9
:100D0000B0011124606440E089E693E00E941C0673
:100D1000E801085F1F4F699189E693E00E9472061F
:100D2000C017D107C1F7DF91CF911F910F9108959F
:100D3000FB0101900020E9F73197AF01461B570BEB
:100D4000DC01ED91FC910280F381E02D09948F92FA
:100D50009F92AF92BF92EF92FF920F931F93CF9308
:100D6000DF93CDB7DEB7A1970FB6F894DEBF0FBE05
:100D7000CDBF7C01FA01CB0119A2223008F42AE090
:100D80008E010F5D1F4F822E912CB12CA12CBF0123
:100D9000A50194010E94990EF901CA016A300CF56F
:100DA000605DD8016E938D01232B242B252B79F7C1
:100DB00090E080E0109721F0BD01C7010E949806E5
:100DC000A1960FB6F894DEBF0FBECDBFDF91CF91D5
:100DD0001F910F91FF90EF90BF90AF909F908F90D9
:100DE0000895695CDECF462F50E070E060E02AE0B5
:100DF0000C94A706CF92DF92EF92FF92CF93DF93EE
:100E00006C01990FEE08FF08F7FE23C06DE288EA37
:100E100092E00E949F00EC0144275527BA014C192B
:100E20005D096E097F092AE088EA92E00E94A70620
:100E3000C80FD91F68E771E088EA92E00E9498061F
:100E40008C0F9D1FDF91CF91FF90EF90DF90CF909F
:100E500008952AE0B701A60188EA92E00E94A70659
:100E6000EC01E8CFCF92DF92EF92FF920F931F93A6
:100E7000CF93DF936B01770FEE08FF08F7FE1BC0DF
:100E8000EC016DE20E949F008C0144275527BA01B6
:100E90004C195D096E097F092AE0CE010E94A70660
:100EA000800F911FDF91CF911F910F91FF90EF90D5
:100EB000DF90CF9008952AE0B701A601DF91CF918E
:100EC0001F910F91FF90EF90DF90CF900C94A706A9
:100ED0000F931F93CF93DF93EC010E9498068C0130
:100EE00068E771E0CE010E949806800F911FDF91A4
:100EF000CF911F910F91089585ED8093BC00809153
:100F0000800290918102A0918202B09183020796A3
:100F1000A11DB11D23E0B695A795979587952A95B4
:100F2000D1F72091BC0024FD03C010927E020895E9
:100F300040918002509181026091820270918302FF
:100F4000452B462B472B69F30097A105B10541F0CE
:100F500025E32A95F1F700000197A109B109E1CF36
:100F600080917F020C9490031F920F920FB60F9204
:100F700011242F933F934F935F936F937F938F939E
:100F80009F93AF93BF93EF93FF9388EA92E00E9401
:100F90002401FF91EF91BF91AF919F918F917F912C
:100FA0006F915F914F913F912F910F900FBE0F90D6
:100FB0001F9018951F920F920FB60F9211242F9326
:100FC0008F939F93EF93FF93E091B802F091B90252
:100FD0008081E091BE02F091BF0282FD1BC0908132
:100FE0008091C1028F5F8F732091C202821741F0FE
:100FF000E091C102F0E0E855FD4F958F8093C1026A
:10100000FF91EF919F918F912F910F900FBE0F90B5
:101010001F9018958081F4CF1F920F920FB60F92F8
:1010200011242F933F938F939F93AF93BF938091FE
:10103000250290912602A0912702B09128023091BA
:10104000240223E0230F2D3758F50196A11DB11D71
:10105000209324028093250290932602A0932702D6
:10106000B09328028091290290912A02A0912B022C
:10107000B0912C020196A11DB11D8093290290937D
:101080002A02A0932B02B0932C02BF91AF919F91A3
:101090008F913F912F910F900FBE0F901F90189539
:1010A00026E8230F0296A11DB11DD2CF1F920F92E9
:1010B0000FB60F9211242F933F934F935F936F932B
:1010C0007F938F939F93AF93BF93EF93FF93809101
:1010D000B900887F803609F44AC0F0F5883209F4F7
:1010E000A7C018F5803109F49BC0B8F4882309F42F
:1010F000F9C0883009F494C0FF91EF91BF91AF918E
:101100009F918F917F916F915F914F913F912F911F
:101110000F900FBE0F901F901895883109F488C06A
:10112000803251F780937C0214C0803409F49DC052
:1011300040F48033B9F38833F9F680937C0285EC70
:10114000B0C0803509F485C0883509F496C088346C
:1011500099F60E947C07D0CF883909F48CC038F505
:10116000883729F050F4883611F0803729F683E06B
:1011700080937E021092230257C0883809F47BC006
:10118000803919F0803809F0B7CF8091230280327E
:1011900008F071C0E091230281E08E0F809323025A
:1011A0008091BB00F0E0ED5FFD4F80833DC0803B50
:1011B00039F0E0F4803A09F479C0883A09F09CCF1C
:1011C00084E080937E021092020210920102E0916C
:1011D0002F02F091300209958091010281110FC018
:1011E00081E0809301021092E10109C0803C09F482
:1011F000A6CF883C09F4A3CF883B09F07DCFE091CE
:10120000020281E08E0F80930202F0E0EF51FE4F68
:1012100080818093BB00909102028091010229C0DD
:10122000809159028093BB0085EC8093BC0064CF11
:1012300090917B0280917A02981758F5E0917B0299
:1012400081E08E0F80937B02F0E0E65AFD4F8081B3
:10125000E9CFE0917B0281E08E0F80937B02809149
:10126000BB00F0E0E65AFD4F808390917B028091B5
:101270007A029817C8F285E8D8CFE0917B0281E026
:101280008E0F80937B028091BB00F0E0E65AFD4F09
:10129000808380917D0281115CCF81E08093580230
:1012A00084EA8093BC0010927E0226CF85EC809366
:1012B000BC0010927E0280912302803230F4E091D3
:1012C0002302F0E0ED5FFD4F10826091230270E099
:1012D000E0912D02F0912E0283E092E009951092A8
:1012E00023020ACF10927C0234CFFC0190819053EC
:1012F0009A3008F090E0818180532AE0929F800D1F
:1013000011240895CF93E8EAF2E01382128288EE66
:1013100093E0A0E0B0E084839583A683B7832CE4B8
:1013200031E03183208325EC30E03587248724ECBD
:1013300030E03787268720EC30E0318B208B21ECA2
:1013400030E0338B228B22EC30E0358B248B26EC83
:1013500030E0378B268B118E128E138E148EE5E4BF
:10136000F3E01382128284839583A683B7838EE58C
:1013700091E091838083E9E6F3E01382128280E7B3
:1013800091E09183808387E2848380E18087C2E05B
:10139000C187128688E0838740E050E0BA0183E687
:1013A00093E00E94CE02A1E5B3E01596CC93159789
:1013B0008BE016968C931697E1EDF0E0E49117968A
:1013C000EC931797EDEBF0E0E4911896EC931897F7
:1013D00040E85EE360E070E01D964D935D936D9391
:1013E0007C935097CF910895CF93DF93CDB7DEB71D
:1013F0002B970FB6F894DEBF0FBECDBF789484B59F
:10140000826084BD84B5816084BD85B5826085BD00
:1014100085B5816085BD80916E00816080936E008E
:101420001092810080918100826080938100809180
:101430008100816080938100809180008160809331
:1014400080008091B10084608093B1008091B000F1
:1014500081608093B00080917A00846080937A00EC
:1014600080917A00826080937A0080917A00816016
:1014700080937A0080917A00806880937A0010923D
:10148000C10061E083E00E940502E091B802F091A2
:10149000B90282E08083E091B802F091B902108233
:1014A000E091B402F091B5021082E091B602F091A1
:1014B000B70280E180831092C002E091BC02F091FB
:1014C000BD0286E08083E091BA02F091BB02808188
:1014D00080618083E091BA02F091BB0280818860D4
:1014E0008083E091BA02F091BB02808180688083A2
:1014F000E091BA02F091BB0280818F7D80831092CF
:10150000320210923102109285021092A7020E94BC
:1015100072038DE990E09093300280932F028EE960
:1015200090E090932E0280932D0210926E03809192
:101530007203823018F098E090936E0390917303D9
:10154000992339F0813029F480916E03846080936F
:101550006E0362E370E080E090E00E949B02609185
:10156000740389E693E00E94ED0568EE73E080E085
:1015700090E00E949B0260E389E693E00E940306EC
:101580009BE4E92E96E4F92EC7010197F1F760E399
:1015900089E693E00E940306C7010197F1F760E333
:1015A00089E693E00E94030683E592E00197F1F754
:1015B00060E289E693E00E94030660916E03606238
:1015C00040E089E693E00E941C0684E080936F036C
:1015D00040E06CE089E693E00E941C060E9433061E
:1015E00082E08093700340E066E089E693E00E9429
:1015F0001C0640E062E089E693E00E941C068BE353
:101600009FE10197F1F7109285021092A7020E94C4
:10161000720381E08093840288E68093A60260E0F2
:1016200085E493E00E94BE050E94B10361E088E674
:101630000E9498048093310285E493E00E9477052C
:1016400087FFB4C06BE771E088EA92E00E94680708
:101650004BE050E063EA70E0CE0101960E94840EF8
:10166000CE010A960E947509082FE981E154E33101
:10167000D8F40E2E000CFF0BE05CF44F0C94BB0E64
:10168000EF0C540B540B030D540B530B540B540B16
:10169000540BE30C540B540BF60C010DFF0C540BC4
:1016A000540B540BFD0C12E0CE0105960E947509F7
:1016B000E82E48E050E06AE970E0CE0101960E9411
:1016C000840ECE0101960E947509D82ECE01049693
:1016D0000E947509C82ECE0107960E947509B82E82
:1016E00081E08093840288E68093A60210928502AE
:1016F0001092A70260E085E493E00E94BE058AE0B4
:10170000F82E8B2D6F2D0E948D0E682F660F680F9F
:10171000660F6B0D85E493E00E94BE058C2D6F2D46
:101720000E948D0E682F660F680F660F6C0D85E4A2
:1017300093E00E94BE058D2D6F2D0E948D0E682FA7
:10174000660F680F660F6D0D85E493E00E94BE057D
:1017500060E085E493E00E94BE058E2D6F2D0E940F
:101760008D0E682F660F680F660F6E0D85E493E08F
:101770000E94BE05812F6F2D0E948D0E682F660F6F
:10178000680F660F610F85E493E00E94BE05802F0D
:101790006F2D0E948D0E682F660F680F660F600F09
:1017A00085E493E00E94BE050E94B10362E080914F
:1017B00056030E94330280E398EFAFEFBFEF8093B0
:1017C0005A0390935B03A0935C03B0935D0361E0C5
:1017D00083E00E94330261E084E00E9433020E94B1
:1017E000330660E080E00E943E066CE871E089E626
:1017F00093E00E94680768E371E081E00E94780648
:1018000060E371E082E00E94780668E271E083E0C4
:101810000E94780660E271E084E00E94780668E148
:1018200071E085E00E94780660E171E086E00E9448
:10183000780668E071E087E00E94780660E071E079
:1018400088E00E9478060E94330668EC70E080E031
:1018500090E00E949B0288248394F8E67F2EADE6F8
:10186000EA2EFF24F394B0E0CB2EB0E0DB2E809282
:1018700084027092A602109285021092A70260E084
:1018800085E493E00E94BE050E94B10367E088E60C
:101890000E949804109232028093310285E493E012
:1018A0000E9477058F77282F30E094E035952795B3
:1018B0009A95E1F7922F990F990FB22EB91ABB0C96
:1018C000B80E85E493E00E9477059C0144E03595CD
:1018D00027954A95E1F72F703327922F990F990F8B
:1018E000A22EA91AAA0CA80E85E493E00E947705FF
:1018F0009C0154E0359527955A95E1F72F703327D1
:10190000922F990F990F922E991A990C980E85E49F
:1019100093E00E94770585E493E00E947705AC018F
:1019200064E0559547956A95E1F74F705527942FD8
:10193000990F990F142F191B110F180F85E493E0BD
:101940000E9477059C0174E0359527957A95E1F71B
:101950002F703327922F990F990F022F091B000F19
:10196000080F85E493E00E9477059C01E4E035953B
:101970002795EA95E1F72F703327922F990F990F4A
:10198000422F491B942F990F980F692F70E0AB01DC
:101990004053584F9093630300936403109365037F
:1019A00090926603A0926703B0926803212F30E003
:1019B000EFEAF0E081E0801740F5A4912A0F311D95
:1019C0008F5F3196F8CF8A8111E0813609F46CCEB1
:1019D0008B8117E08E3609F067CE16E065CE8B81DD
:1019E00018E0823709F060CE14E05ECE8B8115E0FE
:1019F000823709F059CE13E057CE19E055CE1AE0E0
:101A000053CE1BE051CE1CE04FCE033020F093703C
:101A100011F42F5F3F4F4D5C5740569547955695B3
:101A200047956E9DC0016F9D900D7E9D900D112478
:101A3000480F591F41505109240F351FA8E1B0E04C
:101A40000E94C10E9B01AC01290D311D411D511D8C
:101A5000ACE3B0E00E94D00E9B01AC012A0D311D19
:101A6000411D511D0E94D00EAB01BC014B0D511DFB
:101A7000611D711D44545C4B6249774CCE01019647
:101A80000E94CE02B0906603009167031091680334
:101A900061E088E00E943E0689E061E08B1508F471
:101AA00010C188E00E943E0660E389E693E00E9450
:101AB0009F0061E089E00E943E066B2D89E693E07D
:101AC0000E94F30661E08AE00E943E066AE389E62E
:101AD00093E00E949F0061E08BE00A3048F40E948E
:101AE0003E0660E389E693E00E949F0061E08CE09F
:101AF0000E943E06602F89E693E00E94F30661E0B3
:101B00008DE00E943E066AE389E693E00E949F0012
:101B100061E08EE01A3048F40E943E0660E389E6F8
:101B200093E00E949F0061E08FE00E943E06612FDB
:101B300089E693E00E94F3066B2D88EA92E00E940A
:101B4000F30668E971E088EA92E00E949806602F47
:101B500088EA92E00E94F30668E971E088EA92E080
:101B60000E949806612F88EA92E00E94F30668E7D7
:101B700071E088EA92E00E9498068FE00E94640279
:101B80008C01909337028093360280E10E946402B8
:101B900090933502809334020E94330660E080E027
:101BA0000E943E06B80189E693E00E94320761E098
:101BB00080E00E943E06609134027091350289E611
:101BC00093E00E94320780913602909137020E9482
:101BD000FA0680913402909135020E94FA068091B3
:101BE0003602909137028B3C9340C4F00E9433063A
:101BF00060E080E00E943E066AE971E089E693E0D9
:101C00000E9498066AE971E088EA92E00E946807FB
:101C10008FE00E94DC018B3C934044F780913402BA
:101C2000909135028B3C9340C4F00E94330661E0F2
:101C300080E00E943E0666EB71E089E693E00E9438
:101C4000980666EB71E088EA92E00E94680780E1FE
:101C50000E94DC018B3C934044F78091330288233F
:101C600091F18FE00E9464028F39924064F08FE01E
:101C70000E9464028B3C934034F460E083E00E9455
:101C800005028092330261E080E00E943E0660918E
:101C900034027091350289E693E00E94320768EEC3
:101CA00073E080E090E00E949B02C114D10409F42B
:101CB000DECD0E941001882309F4D9CD0E940000D6
:101CC000D6CD88E0F8CE80E10E9464028237914050
:101CD000D4F661E083E00E940502109233020E9474
:101CE000330662E080E00E943E0662ED71E089E624
:101CF00093E00E94980668E572E080E090E00E9420
:101D00009B020E943306BFCFFB01DC0102C005909D
:101D10000D9241505040D8F70895991B79E004C0C6
:101D2000991F961708F0961B881F7A95C9F780951A
:101D30000895A1E21A2EAA1BBB1BFD010DC0AA1F0C
:101D4000BB1FEE1FFF1FA217B307E407F50720F024
:101D5000A21BB30BE40BF50B661F771F881F991F9F
:101D60001A9469F760957095809590959B01AC01E8
:101D7000BD01CF010895EE0FFF1F0590F491E02DF6
:101D80000994A29FB001B39FC001A39F700D811D54
:101D90001124911DB29F700D811D1124911D089574
:101DA0000E94C10EA59F900DB49F900DA49F800D21
:101DB000911D11240895F894FFCF040C0E1E1D19D7
:101DC0000F0E130C00130C00130C0E1115111F0E27
:101DD0000E04040E1F00001F0E040705070000007C
:101DE0000000181C1E1F1E1C1800070C18181818BD
:101DF0000C0704150E1B1B0E1504000040001400F8
:101E00005400000000004601A600D3009301040125
:101E1000E200F60000000000BE059105000667051F
:101E20008A0577056805000000007206A600000616
:101E3000CD020D0A00525443206E6F2066756E630A
:101E4000696F6E6121004155544F204A4152444907
:101E50004E003A0052455649534152204553544191
:101E6000444F2044454C2053454E534F522031009F
:101E7000524556495341522045535441444F204402
:101E8000454C2053454E534F5220320046494E2078
:0A1E900044454C20524945474F00DD
:107E0000112484B714BE81FFF0D085E080938100F7
:107E100082E08093C00088E18093C10086E0809377
:107E2000C20080E18093C4008EE0C9D0259A86E02C
:107E300020E33CEF91E0309385002093840096BBD3
:107E4000B09BFECF1D9AA8958150A9F7CC24DD24C4
:107E500088248394B5E0AB2EA1E19A2EF3E0BF2EE7
:107E6000A2D0813461F49FD0082FAFD0023811F036
:107E7000013811F484E001C083E08DD089C08234E0
:107E800011F484E103C0853419F485E0A6D080C0E4
:107E9000853579F488D0E82EFF2485D0082F10E0AE
:107EA000102F00270E291F29000F111F8ED06801E7
:107EB0006FC0863521F484E090D080E0DECF843638
:107EC00009F040C070D06FD0082F6DD080E0C81688
:107ED00080E7D80618F4F601B7BEE895C0E0D1E017
:107EE00062D089930C17E1F7F0E0CF16F0E7DF06D8
:107EF00018F0F601B7BEE89568D007B600FCFDCFD4
:107F0000A601A0E0B1E02C9130E011968C91119780
:107F100090E0982F8827822B932B1296FA010C0160
:107F200087BEE89511244E5F5F4FF1E0A038BF0790
:107F300051F7F601A7BEE89507B600FCFDCF97BE46
:107F4000E89526C08437B1F42ED02DD0F82E2BD052
:107F50003CD0F601EF2C8F010F5F1F4F84911BD097
:107F6000EA94F801C1F70894C11CD11CFA94CF0C13
:107F7000D11C0EC0853739F428D08EE10CD085E9AC
:107F80000AD08FE07ACF813511F488E018D01DD067
:107F900080E101D065CF982F8091C00085FFFCCF94
:107FA0009093C60008958091C00087FFFCCF809118
:107FB000C00084FD01C0A8958091C6000895E0E648
:107FC000F0E098E1908380830895EDDF803219F02E
:107FD00088E0F5DFFFCF84E1DECF1F93182FE3DFCA
:107FE0001150E9F7F2DF1F91089580E0E8DFEE27F6
:047FF000FF270994CA
:027FFE00040479
:00000001FF
