:100000000C947B050C94A3050C94A3050C94A305F8
:100010000C94A3050C94A3050C94A3050C94A305C0
:100020000C94A3050C94A3050C94A3050C94A305B0
:100030000C94A3050C94A3050C94A3050C94A305A0
:100040000C9484130C94A3050C9452130C942C134D
:100050000C94A3050C94A3050C94A3050C94A30580
:100060000C94CE130C94A30500000000003E5B4FDF
:100070005B3E3E6B4F6B3E1C3E7C3E1C183C7E3C08
:10008000181C577D571C1C5E7F5E1C00183C180016
:10009000FFE7C3E7FF0018241800FFE7DBE7FF30A6
:1000A000483A060E2629792926407F050507407F14
:1000B00005253F5A3CE73C5A7F3E1C1C08081C1C87
:1000C0003E7F14227F22145F5F005F5F06097F017D
:1000D0007F006689956A606060606094A2FFA29468
:1000E00008047E040810207E201008082A1C080836
:1000F0001C2A08081E101010100C1E0C1E0C303884
:100100003E3830060E3E0E06000000000000005F84
:1001100000000007000700147F147F14242A7F2AA0
:100120001223130864623649562050000807030062
:10013000001C2241000041221C002A1C7F1C2A08AE
:10014000083E080800807030000808080808000011
:1001500060600020100804023E5149453E00427F85
:10016000400072494949462141494D331814127FD4
:100170001027454545393C4A494931412111090774
:100180003649494936464949291E000014000000F5
:1001900040340000000814224114141414140041C7
:1001A00022140802015909063E415D594E7C121184
:1001B000127C7F494949363E414141227F414141BC
:1001C0003E7F494949417F090909013E4141517337
:1001D0007F0808087F00417F41002040413F017FA8
:1001E000081422417F404040407F021C027F7F0470
:1001F00008107F3E4141413E7F090909063E4151B9
:10020000215E7F09192946264949493203017F01A8
:10021000033F4040403F1F2040201F3F4038403FA9
:10022000631408146303047804036159494D4300BF
:100230007F4141410204081020004141417F0402F6
:10024000010204404040404000030708002054548D
:1002500078407F284444383844444428384444286B
:100260007F385454541800087E090218A4A49C78BE
:100270007F0804047800447D40002040403D007F1A
:100280001028440000417F40007C047804787C08FA
:100290000404783844444438FC18242418182424CE
:1002A00018FC7C08040408485454542404043F44B3
:1002B000243C4040207C1C2040201C3C4030403CE2
:1002C00044281028444C9090907C4464544C440042
:1002D00008364100000077000000413608000201A6
:1002E0000204023C2623263C1EA1A161123A404092
:1002F000207A38545455592155557941225454780F
:1003000042215554784020545579400C1E527212A7
:100310003955555559395454545939555454580030
:1003200000457C410002457D420001457C407D1234
:1003300011127DF0282528F07C5455450020545496
:100340007C547C0A097F4932494949323A44444441
:100350003A324A4848303A4141217A3A424020787C
:10036000009DA0A07D3D4242423D3D4040403D3C7D
:1003700024FF2424487E4943662B2FFC2F2BFF09A2
:1003800029F620C0887E0903205454794100004496
:100390007D413048484A32384040227A007A0A0A81
:1003A000727D0D19317D2629292F282629292926F4
:1003B00030484D4020380808080808080808382F39
:1003C00010C8ACBA2F102834FA00007B00000814C3
:1003D0002A142222142A1408AA005500AAAA55AAEF
:1003E00055AA000000FF00101010FF00141414FFA5
:1003F000001010FF00FF1010F010F0141414FC0097
:100400001414F700FF0000FF00FF1414F404FC14A0
:100410001417101F10101F101F1414141F00101099
:1004200010F0000000001F101010101F101010100E
:10043000F010000000FF101010101010101010FF2E
:1004400010000000FF140000FF00FF00001F101745
:100450000000FC04F414141710171414F404F4002E
:1004600000FF00F714141414141414F700F71414F4
:1004700014171410101F101F141414F4141010F07B
:1004800010F000001F101F0000001F14000000FCEF
:10049000140000F010F01010FF10FF141414FF14DB
:1004A0001010101F00000000F010FFFFFFFFFFF012
:1004B000F0F0F0F0FFFFFF0000000000FFFF0F0F63
:1004C0000F0F0F3844443844FC4A4A4A347E020233
:1004D0000606027E027E0263554941633844443C6D
:1004E00004407E201E2006027E020299A5E7A599FF
:1004F0001C2A492A1C4C7201724C304A4D4D303036
:1005000048784830BC625A463D3E494949007E0120
:1005100001017E2A2A2A2A2A44445F444440514A3F
:10052000444040444A51400000FF0103E080FF0086
:100530000008086B6B083612362436060F090F06C2
:10054000000018180000001010003040FF010100EA
:100550001F01011E00191D1712003C3C3C3C00000D
:10056000000000000103070F1F3F7F0080C0E0F084
:10057000F8FCFE0000000800020100000304070070
:1005800000000000000000DB40A4A62EAF2000A168
:10059000C8D300408DAED580A800006000000000E8
:1005A00000000000000000000000E000000000006B
:1005B000000000000000000001E00000000000005A
:1005C0000000000000000001F0000000000000003A
:1005D00000000000000003F0000000000000000028
:1005E000000000000007F000000000000000000014
:1005F0000000000007F800000000000000000000FC
:100600000000000FF800000003C0007E000001E0C1
:10061000007F0FF800000003C000FE000001E000B2
:10062000FFEFF800000003C000FE000001E000FF43
:10063000FFF800000003C000F00000000F007FFE84
:100640007FC0000003C000F00000000F003FFE7FED
:10065000F83FF1FBCFFCFEF3BC3DEFE01FFE7FFF58
:100660007FFBFFDFFEFEFFBC3DEFE01FC6FFFF7F0D
:10067000FBFFDFFEFEFFBC3DEFE00FE3C7FE787B34
:10068000C3DE1EF0FFBC3DEF0007FF87FC787BC395
:10069000DE1EF0F83C3DEF0001FFFFF0007BC3C021
:1006A0001EF0F03C3DEF0001F37FE03FFBC3CFFEC7
:1006B000F0F03C3DEF0003E33F807FFBC3DFFEF043
:1006C000F03C3DEF0007E73C00787BC3DE1EF0F016
:1006D0003C3DEF0007FFBE00787BC3DE1EF0F03C20
:1006E0003DEF0007FFFE00787BC3DE1EF0F03C3DCF
:1006F000EF000FFFFE007FFBFFDFFEF0F03FFDEF9E
:10070000E00FFFFF007FFBFFDFFEF0F03FFDEFE0BB
:100710000FF9FF003E79F9CF9EF0F01F3DE7E01F93
:10072000F1FF0000000000000000000000001F803A
:10073000FF007FFFFFFFFFFFFFFFFFFFE01C007FC9
:10074000007FFFFFFFFEB46D888D18E000001F00E2
:100750007FFFFFFFFE95AD7DB577E000000F007FC6
:10076000FFFFFFFEA5AD9D8D19E0000006007FFF95
:10077000FFFFFEB5ADEDB57EE0000000000001809A
:1007800000000000000000000003800000000000E6
:100790000000000007C0000000000000000000078B
:1007A000C00000000000000000000FC000000000BA
:1007B00000000000001FE00000000000000000003A
:1007C0001FE00000000000000000003FE00000000B
:1007D0000000000000003FF00000000000000000EA
:1007E000007FF0000000000000001FF87FF0000014
:1007F00000000000003FFE7FF0000000000000004D
:100800003FFF7FF0000000000000001FFFFBE00042
:100810000000000000000FFFF9FFC0000000000012
:10082000000FFFF9FFF800000000000007FFF1FFD4
:10083000FF00000000000003FC73FFFF80000000C9
:10084000000001FE3FFFFF80000000000000FF1ECF
:100850000FFF000000000000007FFE1FFC000000F2
:10086000000000003FFFFFF8000000000000000F44
:10087000DFFFE0000000000000001F19FFC00000C3
:1008800000000000003F3CFF0000000000000000EE
:100890007E7CF800000000000000007FFE7C00006D
:1008A000000000000000FFFFFC000000000000004E
:1008B00000FFFFFE0000000000000000FFFFFE0040
:1008C00000000000000001FFEFFE0000000000003B
:1008D0000001FFCFFE0000000000000003FF07FE44
:1008E0000000000000000003FC07FE000000000004
:1008F000000003F003FE0000000000000001800083
:10090000FE000000000000000000007E000000006B
:100910000000000000003E00000000000000000099
:10092000000C000000000000078000FC000003C075
:10093000000000078001FC000003C00000000780E9
:1009400001FC000003C0000000078001E00000007F
:100950001E000000078001E00000001E007FE3F79A
:100960009FF9FDE7787BDFC0FFF7FFBFFDFDFF7854
:100970007BDFC0FFF7FFBFFDFDFF787BDFC0F0F737
:1009800087BC3DE1FF787BDE00F0F787BC3DE1F0FE
:10099000787BDE0000F787803DE1E0787BDE007F3A
:1009A000F7879FFDE1E0787BDE00FFF787BFFDE181
:1009B000E0787BDE00F0F787BC3DE1E0787BDE008D
:1009C000F0F787BC3DE1E0787BDE00F0F787BC3DC7
:1009D000E1E0787BDE00FFF7FFBFFDE1E07FFBDFBA
:1009E000C0FFF7FFBFFDE1E07FFBDFC07CF3F39FBB
:1009F0003DE1E03E7BCFC0000000000000000000B1
:100A00000000FFFFFFFFFFFFFFFFFFFFC0FFFFFF33
:100A1000FFFD68DB111A31C0FFFFFFFFFD2B5AFB02
:100A20006AEFC0FFFFFFFFFD4B5B3B1A33C0FFFFC8
:100A3000FFFFFD6B5BDB6AFDC030780048656C6CC6
:100A40006F2C20776F726C64210000FF2F2600004E
:100A5000FF2F2700012F2900A300012F2A00A30048
:100A60007363726F6C6C002064793A200020793ACD
:100A70002000783A200000C001C001C003E0F3E08C
:100A8000FEF87EFF339F1FFC0D701BA03FE03FF080
:100A90007CF0707000305353443133303620616C39
:100AA0006C6F636174696F6E206661696C65640068
:100AB00000000000250028002B000000000024009A
:100AC00027002A00040404040404040402020202AD
:100AD0000202030303030303010204081020408001
:100AE0000102040810200102040810202200FF2146
:100AF0000000ED142A2211241FBECFEFD8E0DEBF84
:100B0000CDBF11E0A0E0B1E0E8E0F9E402C005905B
:100B10000D92AE34B107D9F722E0AEE4B1E001C0E6
:100B20001D92A53FB207E1F715E0CAE7D5E004C082
:100B30002197FE010E944023C937D107C9F70E94BF
:100B40006D150C9477240C94000090E0FC01E852A1
:100B5000F54F24918C53954FFC018491882399F093
:100B600090E0880F991FFC01E654F54FA591B491D0
:100B7000FC01E055F54F859194918FB7F894EC9175
:100B8000E22BEC938FBF089508950895EF92FF92A2
:100B90000F931F93CF93DF938C017B01D0E0C0E0D4
:100BA000F701EC0FFD1F6491662361F0D801ED9110
:100BB000FC910190F081E02DC8010995892B11F07D
:100BC0002196EECFCE01DF91CF911F910F91FF9033
:100BD000EF900895AF92BF92CF92DF92EF92FF9283
:100BE0000F931F93CF93DF936C017B018B01040F55
:100BF000151FEB015E01AE18BF08C017D10759F0F1
:100C00006991D601ED91FC910190F081E02DC60132
:100C10000995892B79F7C501DF91CF911F910F912C
:100C2000FF90EF90DF90CF90BF90AF900895FC01C0
:100C3000538D448D252F30E0842F90E0821B930B41
:100C4000541710F0CF96089501970895FC01918DE7
:100C5000828D981761F0A28DAE0FBF2FB11D5D96EA
:100C60008C91928D9F5F9F73928F90E008958FEF8C
:100C70009FEF0895FC01918D828D981731F0828D40
:100C8000E80FF11D858D90E008958FEF9FEF089597
:100C9000FC01918D228D892F90E0805C9F4F821BFB
:100CA00091098F73992708958CE092E00E9448067D
:100CB00021E0892B09F420E0822F089580E090E064
:100CC000892B29F00E94540681110C94000008958C
:100CD000FC01A48DA80FB92FB11DA35ABF4F2C91B1
:100CE000848D90E001968F739927848FA689B789A8
:100CF0002C93A089B1898C91837080648C93938D9F
:100D0000848D981306C00288F389E02D80818F7D41
:100D100080830895EF92FF920F931F93CF93DF93F9
:100D2000EC0181E0888F9B8D8C8D98131AC0E88927
:100D3000F989808185FF15C09FB7F894EE89FF89F6
:100D40006083E889F98980818370806480839FBF94
:100D500081E090E0DF91CF911F910F91FF90EF9094
:100D60000895F62E0B8D10E00F5F1F4F0F731127A4
:100D7000E02E8C8D8E110CC00FB607FCFACFE889DF
:100D8000F989808185FFF5CFCE010E946806F1CFF9
:100D9000EB8DEC0FFD2FF11DE35AFF4FF0829FB753
:100DA000F8940B8FEA89FB8980818062CFCFCF9343
:100DB000DF93EC01888D8823B9F0AA89BB89E88983
:100DC000F9898C9185FD03C0808186FD0DC00FB629
:100DD00007FCF7CF8C9185FFF2CF808185FFEDCFA7
:100DE000CE010E946806E9CFDF91CF91089590E08F
:100DF000FC01ED58FA4F2491FC01E852F54F349173
:100E0000FC01EC53F54FE491EE23C9F0222339F0B5
:100E1000233001F1A8F4213019F1223029F1F0E05A
:100E2000EE0FFF1FE055F54FA591B4918FB7F894E1
:100E3000EC91611126C030953E233C938FBF0895FD
:100E40002730A9F02830C9F0243049F7809180007C
:100E50008F7D03C0809180008F7780938000DFCFEB
:100E600084B58F7784BDDBCF84B58F7DFBCF809138
:100E7000B0008F778093B000D2CF8091B0008F7D8B
:100E8000F9CF3E2BDACF3FB7F8948091FA019091D9
:100E9000FB01A091FC01B091FD0126B5A89B05C006
:100EA0002F3F19F00196A11DB11D3FBFBA2FA92FE9
:100EB000982F8827BC01CD01620F711D811D911DE6
:100EC00042E0660F771F881F991F4A95D1F7089552
:100ED0008F929F92AF92BF92CF92DF92EF92FF924A
:100EE0004B015C010E9443076B017C010E94430798
:100EF0006C197D098E099F09683E73408105910533
:100F0000A8F321E0821A9108A108B10888EEC80E62
:100F100083E0D81EE11CF11C81149104A104B104EA
:100F200029F7FF90EF90DF90CF90BF90AF909F9008
:100F30008F900895EF92FF920F931F93CF93DF93BB
:100F4000EC01EC80FD806E157F050CF070C057FF42
:100F500004C0240F351F50E040E08E819F81FA01CC
:100F6000E20FF31F8E179F071CF49C01241B350B07
:100F7000121613060CF05BC0922F842F869586956F
:100F800086958E9DD0018F9DB00D11246A0F7B1F19
:100F9000AB8DBC8DA60FB71F477049F188E0841B4D
:100FA000482F682F70E0FB01E559FA4FE4912817AC
:100FB00008F063C0621B71092FEF30E002C0359565
:100FC00027956A95E2F7E2230130110539F0B0F177
:100FD0000230110561F58C91E82702C08C91E82B55
:100FE000EC93941720F12C813D81A20FB31FE92FC0
:100FF000E41BE83078F00230110521F58E2F9C912A
:1010000090959C932C813D81A20FB31F885088300E
:10101000B0F7E770EE2359F0F0E0ED59FA4FE491A4
:1010200001301105F9F010F10230110519F1DF91CD
:10103000CF911F910F91FF90EF900895E0958C91C3
:10104000E823CECF81E00115110509F480E08195F8
:101050009E2F8C932C813D81A20FB31F9850983006
:10106000C0F7D7CF8C91E82BEC93E1CFE0958C9132
:10107000E823FACF8C91E827F7CF0130110509F466
:10108000ADCFE0F20230110509F4A5CFAE0DBF1DC2
:10109000AECF0F931F93CF93DF9377FF04C0260F3C
:1010A000371F70E060E0DC011496CD91DC91FB010C
:1010B000E20FF31FCE17DF071CF49E01261B370B30
:1010C000121613064CF5FA0157FD3796A3E0F59575
:1010D000E795AA95E1F7EC9FD001ED9FB00DFC9F3D
:1010E000B00D11246A0F7B1FDC015B96ED91FC9122
:1010F000E60FF71F4770552781E090E001C0880F89
:101100004A95EAF7482F0130110559F0A8F02E0F43
:101110003F1F02301105E1F0DF91CF911F910F9138
:1011200008952E0F3F1FE217F307B1F38191DF01FE
:101130001197842B8C93F7CF80952E0F3F1FE217CA
:10114000F30751F39191DF01119798239C93F7CF07
:10115000E217F30709F38191DF01119784278C933C
:10116000F7CFFC0180859185681779070CF05EC088
:1011700057FD5CC082859385481759070CF056C00F
:1011800085898230B1F0833029F1813041F4848146
:101190009581841B950BAB01BC0161507109213015
:1011A000310509F108F443C02230310509F463C068
:1011B000089584819581DC01A61BB70BBD016150A8
:1011C000710986819781DC01A41BB50BAD014150EB
:1011D0005109E5CF86819781861B970BBA01AC0137
:1011E00041505109DCCFCA0157FD0796A3E0959500
:1011F0008795AA95E1F7A481B5818A9F90018B9F7D
:10120000300D9A9F300D1124620F731F038CF48DE3
:10121000E02DE60FF71F4770552721E030E001C0B1
:10122000220F4A95EAF78081822B80830895CA01B4
:1012300057FD079633E0959587953A95E1F7A48198
:10124000B5818A9F90018B9F300D9A9F300D11249C
:10125000620F731F038CF48DE02DE60FF71F4770AC
:10126000552781E090E001C0880F4A95EAF7809504
:1012700090818923DACFCA0157FD079623E095951F
:1012800087952A95E1F7A481B5818A9F90018B9F6C
:10129000300D9A9F300D1124620F731F038CF48D53
:1012A000E02DE60FF71F4770552721E030E001C021
:1012B000220F4A95EAF780818227B7CF77FF0C94F7
:1012C000B10808952F923F924F925F926F927F9252
:1012D0008F929F92AF92BF92CF92DF92EF92FF9246
:1012E0000F931F93CF93DF937C016B01EA0181E0A1
:1012F00090E05C01A41AB50A66247724641A750A82
:10130000660C771C10E000E088248394912C822FD7
:101310008470582E822F8270482E822F8870382E2B
:101320002170222E0C171D070CF079C0B7FC06C0E7
:10133000219782E0680E711CA60CB71C0F5F1F4F2F
:1013400082E0880E911CA80CB91C5520C1F021E048
:1013500030E0AE014C0D5D1DB701600F711F85EBD4
:1013600092E00E945E0921E030E0A601400F511F8B
:10137000BE016E0D7F1D85EB92E00E945E09442048
:10138000C1F021E030E0A6014C1B5D0BB701600FFE
:10139000711F85EB92E00E945E0921E030E0A6011A
:1013A000401B510BBE016E0D7F1D85EB92E00E942C
:1013B0005E093320C1F021E030E0A601400F511F4B
:1013C000B7016C1B7D0B85EB92E00E945E0921E06A
:1013D00030E0AE014C0D5D1DB701601B710B85EB5C
:1013E00092E00E945E09222009F49CCF21E030E0C7
:1013F000A601401B510BB7016C1B7D0B85EB92E0E6
:101400000E945E0921E030E0A6014C1B5D0BB70194
:10141000601B710B85EB92E00E945E0983CFDF9128
:10142000CF911F910F91FF90EF90DF90CF90BF90E1
:10143000AF909F908F907F906F905F904F903F9074
:101440002F9008952F923F924F925F926F927F92CA
:101450008F929F92AF92BF92CF92DF92EF92FF92C4
:101460000F931F93CF93DF936C013B015901280128
:1014700027E0420E511C93E0559447949A95E1F76A
:10148000EA011701240E351E912C812CC215D305BB
:1014900089F1F12CE12C0E151F0541F1F70183E0D4
:1014A000F595E7958A95E1F7E80DF91DEA0DFB1D25
:1014B000E491C7018770992720E830E002C0359594
:1014C00027958A95E2F7C901F0E0E223F923EF2B93
:1014D00049F021E030E0AE01B701660D771DC6018D
:1014E0000E945E093FEFE31AF30AD5CF840C951CE6
:1014F0002196CCCFDF91CF911F910F91FF90EF906C
:10150000DF90CF90BF90AF909F908F907F906F9023
:101510005F904F903F902F9008950F931F93FA0183
:10152000DC0155964C9155974230E9F04330A1F1DA
:10153000413061F514964D915C91DA01AE1BBF0B01
:10154000FD01E21BF30B77FD0BC0DC0116964D91FC
:101550005C916417750724F4AB01BF010E94490830
:101560001F910F91089514964D915C91DA01A61B7D
:10157000B70BBD0161507109DC0116964D915C916C
:10158000DA01AE1BBF0BFD01E21BF30B77FDE8CFC9
:10159000AF010E949A07E4CF16964D915C91DA0153
:1015A000A61BB70BBD0161507109CDCF2F923F92A1
:1015B0004F925F926F927F928F929F92AF92BF9263
:1015C000CF92DF92EF92FF920F931F93CF93DF930F
:1015D00000D000D0CDB7DEB72C013B015C834B833C
:1015E000480181E090E06C01C41AD50A1A013194D7
:1015F00021943108220C331CF12CE12CAA24A39451
:10160000B12C422F4170498322702A838B819C81A7
:10161000E816F9060CF063C0D7FC08C001979C835C
:101620008B8392E0290E311CC20CD31C4FEFE41ABD
:10163000F40A52E0A50EB11CCA0CDB1C8981882378
:1016400021F12B813C81220F331F2F5F3F4F280D4B
:10165000391D02E010E0A3018B819C81481B590BCE
:10166000B2016E0D7F1D85EB92E00E948D0A9501FF
:10167000280D391DA3014E195F096B817C81640D12
:10168000751D85EB92E00E948D0A9A81992309F4D9
:10169000BDCF2B813C81220F331F2F5F3F4F280D81
:1016A000391D02E010E0A3018B819C81481B590B7E
:1016B000B2016E197F0985EB92E00E948D0A9501B7
:1016C000280D391DA3014E195F09B2018B819C8140
:1016D000681B790B85EB92E00E948D0A97CF0F90E3
:1016E0000F900F900F90DF91CF911F910F91FF906E
:1016F000EF90DF90CF90BF90AF909F908F907F90B2
:101700006F905F904F903F902F9008950F931F938D
:10171000FA01DC0155964C9155974230A9F04330BF
:1017200091F1413019F514964D915C91DA01AE1B9F
:10173000BF0BFD013197F7FD04C0AB01BF010E9453
:101740009A071F910F91089514964D915C91DA01BB
:10175000A61BB70BBD01DC0116964D915C91DA0119
:10176000AE1BBF0BFD013197621B730BF7FDE9CF79
:10177000DC0116964D915C91E417F50714F7AF0163
:101780000E944908DECF16964D915C91DA01A61BA6
:10179000B70BBD01621B730BCECF08958EBD000049
:1017A0000DB407FEFDCF8EB508958CBD9DBD089587
:1017B00008952F923F924F925F926F927F928F92F5
:1017C0009F92AF92BF92CF92DF92EF92FF920F93D0
:1017D0001F93CF93DF93CDB7DEB72C970FB6F89456
:1017E000DEBF0FBECDBF9C838B836A3061F5DC0109
:1017F00054968C91B8E08B9F90011124EB81FC8171
:1018000086859785820F931F97878687158614860E
:1018100081E090E02C960FB6F894DEBF0FBECDBFEE
:10182000DF91CF911F910F91FF90EF90DF90CF90BC
:10183000BF90AF909F908F907F906F905F904F90F0
:101840003F902F9008956D3019F32B813C813C8798
:101850002B87D9011C96CD90DC901D9718968D9101
:101860009C911997C816D9060CF07FC01E968D90D2
:101870009C901F971A968D919C911B97881699069C
:101880000CF073C05496BC91B983AB2EB12CC60139
:10189000E6E0BE9F800D911D1124181619060CF06C
:1018A00064C0C50143E0880F991F4A95E1F7880D90
:1018B000991D181619060CF058C0D90152960D90B2
:1018C000BC91A02DBC83AB83F9010088F189E02D88
:1018D000FE83ED83F5E06F9FB001112426011A828B
:1018E0006C197D099B0128593F4F3A8729873A8116
:1018F000E0E0353029F0E985FA85E40DF51DE49145
:101900001401712C612C8E2F90E098878F83E0FF5B
:101910006AC0AB85BC85ED91FC91B981B13009F00D
:1019200055C00084F185E02D2D813E81A401460D36
:10193000571DB2018B859C850995EF81F885F5953A
:10194000E795FFEF6F1A7F0A2A0C3B1C28E062160E
:101950007104C9F63FEF431A530ACA0CDB1C5A81C3
:101960005F5F5A83563009F0C2CFAB85BC85549671
:101970004C915497242F30E01C968D919C91B6E0A9
:101980004B9F800D911D1124EB85FC8595878487E5
:101990004689442309F43CCF6AEF6203A001639FA8
:1019A000500D112460857185460F571F4817590740
:1019B0000CF02ECF83E0220F331F8A95E1F7868546
:1019C0009785280F391F3787268720CF0288F3890C
:1019D000E02DED80FE8085019501A101B6018B858A
:1019E0009C850995AACFEB81FC812D813E81E21770
:1019F000F30709F4A2CFAB85BC85ED91FC91B981C9
:101A0000B13031F40084F185E02D2B813C818ECF03
:101A10000288F389E02DEB80FC80DDCFEF92FF920E
:101A20000F931F93DC011A960D911C911B9718962A
:101A30002D913C911997ED91FC910288F389E02D4D
:101A40007B0150E040E070E060E009951F910F914C
:101A5000FF90EF9008956F927F928F929F92AF9236
:101A6000BF92CF92DF92EF92FF920F931F93CF938B
:101A7000DF936C015A014801EB013B01620E731EBA
:101A8000C615D70574F4D601ED91FC910484F58553
:101A9000E02D87019401A501BE01C601099521969B
:101AA000EFCFDF91CF911F910F91FF90EF90DF90DB
:101AB000CF90BF90AF909F908F907F906F90089540
:101AC000EF92FF920F931F93260F371F215031097A
:101AD000DC01ED91FC910284F385E02D78018A010F
:101AE00009951F910F91FF90EF900895EF92FF924B
:101AF0000F931F93240F351F21503109DC01ED9105
:101B0000FC910284F385E02D780189019B01099500
:101B10001F910F91FF90EF9008956F927F928F9297
:101B20009F92AF92BF92CF92DF92EF92FF920F936C
:101B30001F93CF93DF93EC016B015A0139014801E8
:101B4000E881F9810684F785E02D87010995A501D3
:101B5000480D591D41505109E881F9810684F785E6
:101B6000E02D9301B601CE010995E881F981048445
:101B7000F585E02D9401A501B601CE010995C60CAD
:101B8000D71CB60161507109E881F9810484F5859B
:101B9000E02D9401A501CE010995DF91CF911F9110
:101BA0000F91FF90EF90DF90CF90BF90AF909F90FC
:101BB0008F907F906F9008952F923F924F925F92F7
:101BC0006F927F928F929F92AF92BF92CF92DF924D
:101BD000EF92FF920F931F93CF93DF9300D000D02B
:101BE00000D0CDB7DEB73C016A013E832D83FC8275
:101BF000EB825801A41AB50AB7FE03C0B194A194B0
:101C0000B1088D809E80861A970A97FE03C0919432
:101C1000819491088A149B045CF0902F812F0D8190
:101C20001E819D838E839C2D8D2D6B01692F782FB6
:101C30000C151D055CF09D818E817E836D83692F5F
:101C4000782F902F812F8601C92ED82E1601201AA9
:101C5000310A2B012D813E81421A530A57FE03C0DF
:101C6000519441945108710137FE03C03FEFE31ACC
:101C7000F30AF594E7948D819E81861797075CF5AA
:101C8000A1E0B0E0BA83A983C016D1064CF1D3011C
:101C9000ED91FC910084F185E02D2B813C81A80120
:101CA0006D817E818A149B041CF04D815E81B80198
:101CB000C3010995E418F508F7FE0AC02D813E819D
:101CC00089819A81280F391F3E832D83E20CF31CF2
:101CD0000F5F1F4FD9CF2FEF3FEF3A832983D4CF28
:101CE00026960FB6F894DEBF0FBECDBFDF91CF9121
:101CF0001F910F91FF90EF90DF90CF90BF90AF902A
:101D00009F908F907F906F905F904F903F902F901B
:101D10000895089585ED8093BC008091BC0084FDFA
:101D2000FCCF1092050208952091AE01260F3327B3
:101D3000331F21323105ECF420910502FC0190E0C3
:101D400080E0243069F082E00895A091AE012191F5
:101D5000AC0142575E4FA40FB52FB11D2C930196D5
:101D6000861798F38091AE01680F6093AE0180E012
:101D7000089581E008959B01AC0160E074E284EF76
:101D800090E00E940F2320513109410951095695D5
:101D90004795379527952093B80008950895E091C9
:101DA000070280910602E81730F4F0E0E259FE4F96
:101DB000808190E008958FEF9FEF08959091070242
:101DC000809106022FEF3FEF981748F4E92FF0E0DB
:101DD000E259FE4F208130E09F5F90930702C901D6
:101DE00008958091060290910702891B990B08952E
:101DF000CF92DF92EF92FF920F931F93CF93DF93D7
:101E00007C01CB018A0120910B02222389F0EB0196
:101E10006B01C40ED51ECC15DD0569F06991D701A3
:101E2000ED91FC910190F081E02DC7010995F3CF70
:101E3000642F0E94940EC801DF91CF911F910F91E2
:101E4000FF90EF90DF90CF900895CF93DF931F9294
:101E5000CDB7DEB7698320910B022223F9F02091E0
:101E60000802203258F021E030E0FC013383228365
:101E700090E080E00F90DF91CF910895809109026A
:101E8000E82FF0E0E25BFE4F998190838F5F8093B3
:101E900009028093080281E090E0ECCF61E0CE017E
:101EA00001960E94940EF7CF2091080281E0213222
:101EB00008F044C0809105028111FCCF80910A0294
:101EC00092E09093050291E0909304029FEF90932B
:101ED000D1011092F3012093F201AEE4B1E0E2ED02
:101EE000F1E090E0291331C01092F4019091F401D7
:101EF000880F892B8093F40180910302813049F58A
:101F0000109203028091F4018093BB008091BC0089
:101F100083FDF8CF85EC8093BC0080910502823070
:101F2000E1F38091D1018F3FB1F08091D1018032F6
:101F3000A1F08091D101803391F084E010920902E8
:101F40001092080210920B0208953D9131939F5F09
:101F5000C9CF85EEE0CF80E0F1CF82E0EFCF83E024
:101F6000EDCFEF92FF920F931F93CF93DF937C01FE
:101F7000C62F8091CE029091CF02009709F459C0EC
:101F80002091D20231E030930B0220930A0210928A
:101F9000090210920802DC01ED91FC910190F081A0
:101FA000E02D60E009958701EE24E394F12CD1E067
:101FB000C1508091CE029091CF02CF3F91F1B0E21B
:101FC000EB16F104D8F00E94540F8091CE0290914C
:101FD000CF022091D202D0930B0220930A021092DA
:101FE000090210920802DC01ED91FC910190F08150
:101FF000E02D60E00995EE24E394F12C8091CE026F
:102000009091CF02F8016491DC01ED91FC91019077
:10201000F081E02D0995BFEFEB1AFB0A0F5F1F4F10
:10202000C7CFDF91CF911F910F91FF90EF900C944C
:10203000540FE091DE02F091DF0290818091E40282
:102040008095892380838701C15008F438C0F80146
:1020500084912091CC023091CD02232B29F00E9453
:10206000CE0B0F5F1F4FF0CF28E030E040E8E0914B
:10207000DA02F091DB029091E202582F5423D9F05A
:102080005081952B9083E091DC02F091DD029081EC
:102090005091E302952B9083E091DC02F091DD02F8
:1020A00050819091E302909595239083469521501D
:1020B0003109E9F6D6CF508190959523E3CFDF9192
:1020C000CF911F910F91FF90EF9008951F93CF93A1
:1020D000DF93EC01898D9A8D009721F1162F2D8DBC
:1020E00031E030930B0220930A0210920902109201
:1020F0000802DC01ED91FC910190F081E02D60E09F
:102100000995898D9A8DDC01ED91FC910190F0810A
:10211000E02D612F0995898D9A8DDF91CF911F91C7
:102120000C94540FA9A5BAA59C918FA580958923DD
:102130008C938F89988D892B31F0862FDF91CF91E9
:102140001F910C94CE0B28E030E080E8ADA1BEA139
:102150009DA5462F4823C1F04C91942B9C93AFA191
:10216000B8A59C914EA5942B9C93AFA1B8A54C917A
:102170009EA5909594239C9386952150310931F723
:10218000DF91CF911F9108954C9190959423E6CFC4
:10219000DF92EF92FF920F931F93CF93DF93809183
:1021A000CE029091CF02892B09F48AC06091E60299
:1021B0007091E7028091E8029091E9020E94BB0EC3
:1021C00065E08CEE9AE00E94B10F6091B902615017
:1021D00085EB92E00E9466102091BB023091BC0218
:1021E000C901079697FD079623E0959587952A954F
:1021F000E1F72091B9023091BA02829F8001839F5A
:10220000100D929F100D1124C091D002D091D102D7
:102210008091CE029091CF020C0F1D1F009709F400
:1022200080C02091D20231E030930B0220930A0249
:102230001092090210920802DC01ED91FC910190CC
:10224000F081E02D60E40995EE24E394F12CDD2487
:10225000D3948091CE029091CF020C171D0709F400
:1022600046C0B0E2EB16F104D8F00E94540F809102
:10227000CE029091CF022091D202D0920B022093F5
:102280000A021092090210920802DC01ED91FC9101
:102290000190F081E02D60E40995EE24E394F12CA7
:1022A0008091CE029091CF026991DC01ED91FC9179
:1022B0000190F081E02D0995BFEFEB1AFB0AC9CF21
:1022C0008091CC029091CD02892B31F08091EF0268
:1022D0009091F0020E94D50BE091E002F091E102B2
:1022E00090818091E50280958923808369CF0E9447
:1022F000540F8091CE029091CF02892B09F452C0E5
:102300006091EA027091EB028091EC029091ED02F3
:10231000DF91CF911F910F91FF90EF90DF900C9480
:10232000BB0EE091DE02F091DF0280819091E40229
:10233000892B80830C171D07E1F289912091CC0233
:102340003091CD02232B19F00E94CE0BF3CF28E061
:1023500030E040E8E091DA02F091DB029091E20295
:10236000582F5423D9F05081952B9083E091DC02B3
:10237000F091DD0290815091E302952B9083E091E2
:10238000DC02F091DD0250819091E302909595235B
:102390009083469521503109E9F6CCCF5081909534
:1023A0009523E3CFE091E002F091E10280819091EA
:1023B000E502892B8083DF91CF911F910F91FF90D0
:1023C000EF90DF9008958091CE029091CF02892BFB
:1023D000F9F06091E6027091E7028091E802909135
:1023E000E9020E94BB0E6EE285EB92E00E9466104D
:1023F0008091CE029091CF02892B09F16091EA027F
:102400007091EB028091EC029091ED020C94BB0E66
:102410008091CC029091CD02892B31F08091EF0216
:102420009091F0020E94D50BE091E002F091E10260
:1024300090818091E502809589238083D4CFE091BB
:10244000E002F091E10280819091E502892B808386
:1024500008951F93CF93DF93EC01162F898D9A8DEA
:10246000892BC9F069A97AA98BA99CA90E94BB0EE6
:1024700066EA111167EACE010E946610898D9A8D75
:10248000892BC9F06DA97EA98FA998ADDF91CF9155
:102490001F910C94BB0E8F89988D892B21F08AADEA
:1024A0009BAD0E94D50BEBA5FCA5908188A98095DA
:1024B00089238083DDCFEBA5FCA5808198A9892B9A
:1024C0008083DF91CF911F91089590E080E008957F
:1024D0002091BB023091BC02C901079697FD079677
:1024E00023E0959587952A95E1F72091B9023091DF
:1024F000BA02829FA001839F500D929F500D11241C
:1025000070E060E08091D0029091D1020C94702430
:102510000E946B24FB0101900020E9F73197AF0185
:10252000461B570BDC01ED91FC910280F381E02DFD
:1025300009948F929F92AF92BF92EF92FF920F9366
:102540001F93CF93DF93CDB7DEB7A1970FB6F89463
:10255000DEBF0FBECDBF7C01FA01CB0119A2223034
:1025600008F42AE08E010F5D1F4F822E912CB12CB2
:10257000A12CBF01A50194010E940F23F901CA01FA
:102580006A300CF5605DD8016E938D01232B242BEE
:10259000252B79F790E080E0109721F0BD01C7016D
:1025A0000E948A12A1960FB6F894DEBF0FBECDBF6F
:1025B000DF91CF911F910F91FF90EF90BF90AF905F
:1025C0009F908F900895695CDECFCF92DF92EF925B
:1025D000FF92CF93DF936B017C016DE28CE092E080
:1025E0000E948A06EC0144275527BA014C195D095F
:1025F0006E097F092AE08CE092E00E9499128C0F0C
:102600009D1FDF91CF91FF90EF90DF90CF900895C5
:10261000AC01092E000C660B770B97FF04C0CB01B1
:10262000BA010C94E5122AE08CE092E00C94991225
:102630000F931F93CF93DF93EC010E94C6058C018B
:102640006AE471E0CE010E948A12800F911FDF912F
:10265000CF911F910F9108951F920F920FB60F9275
:1026600011242F933F934F935F936F937F938F9397
:102670009F93AF93BF93EF93FF938CE092E00E9400
:102680006806FF91EF91BF91AF919F918F917F91DC
:102690006F915F914F913F912F910F900FBE0F90CF
:1026A0001F9018951F920F920FB60F9211242F931F
:1026B0008F939F93EF93FF93E0911C02F0911D0283
:1026C0008081E0912202F091230282FD1BC0908163
:1026D000809125028F5F8F7320912602821741F02F
:1026E000E0912502F0E0E45FFD4F958F8093250295
:1026F000FF91EF919F918F912F910F900FBE0F90AF
:102700001F9018958081F4CF1F920F920FB60F92F1
:1027100011242F933F938F939F93AF93BF938091F7
:10272000F6019091F701A091F801B091F901309173
:10273000F50123E0230F2D3758F50196A11DB11D9A
:102740002093F5018093F6019093F701A093F8018F
:10275000B093F9018091FA019091FB01A091FC01E5
:10276000B091FD010196A11DB11D8093FA019093D6
:10277000FB01A093FC01B093FD01BF91AF919F912C
:102780008F913F912F910F900FBE0F901F90189532
:1027900026E8230F0296A11DB11DD2CF1F920F92E2
:1027A0000FB60F9211242F933F934F935F936F9324
:1027B0007F938F939F93AF93BF93EF93FF938091FA
:1027C000B900887F803609F44AC0F0F5883209F4F0
:1027D000A7C018F5803109F49BC0B8F4882309F428
:1027E000F9C0883009F494C0FF91EF91BF91AF9187
:1027F0009F918F917F916F915F914F913F912F9119
:102800000F900FBE0F901F901895883109F488C063
:10281000803251F78093D10114C0803409F49DC0F7
:1028200040F48033B9F38833F9F68093D10185EC15
:10283000B0C0803509F485C0883509F496C0883465
:1028400099F60E948A0ED0CF883909F48CC038F5E9
:10285000883729F050F4883611F0803729F683E064
:10286000809305021092D00157C0883809F47BC0CC
:10287000803919F0803809F0B7CF8091D0018032CB
:1028800008F071C0E091D00181E08E0F8093D001FB
:102890008091BB00F0E0E055FE4F80833DC0803B5F
:1028A00039F0E0F4803A09F479C0883A09F09CCF15
:1028B00084E0809305021092AF011092AE01E09186
:1028C0000102F091020209958091AE0181110FC0C1
:1028D00081E08093AE0110928E0109C0803C09F422
:1028E000A6CF883C09F4A3CF883B09F07DCFE091C7
:1028F000AF0181E08E0F8093AF01F0E0E257FE4F11
:1029000080818093BB009091AF018091AE0129C07E
:102910008091F4018093BB0085EC8093BC0064CF70
:102920009091F3018091F201981758F5E091F3012D
:1029300081E08E0F8093F301F0E0EE52FE4F808134
:10294000E9CFE091F30181E08E0F8093F301809154
:10295000BB00F0E0EE52FE4F80839091F301809136
:10296000F2019817C8F285E8D8CFE091F30181E031
:102970008E0F8093F3018091BB00F0E0EE52FE4F8A
:1029800080838091040281115CCF81E080930302F7
:1029900084EA8093BC001092050226CF85EC8093D8
:1029A000BC00109205028091D001803230F4E09199
:1029B000D001F0E0E055FE4F10826091D00170E050
:1029C000E091FF01F091000280EB91E009951092F7
:1029D000D0010ACF1092D10134CFECE0F2E01382A3
:1029E000128248EE53E060E070E0448355836683D2
:1029F00077838EE091E09183808385EC90E09587EA
:102A0000848784EC90E09787868780EC90E0918BB8
:102A1000808B81EC90E0938B828B82EC90E0958BA5
:102A2000848B86EC90E0978B868B118E128E138EA2
:102A3000148EA9EAB2E013961C921E921297149675
:102A40004D935D936D937C93179780E291E011967F
:102A50009C938E93E5EBF2E01382128220E830E043
:102A60003583248380E490E09783868331872087B1
:102A700093878287158A158614861786168681E0C5
:102A8000848B2FEF3FEF338B228B318B208B868B08
:102A900082E391E091838083108E178AB28FA18F99
:102AA000148E138E8FEF80A381A382A383A384E06F
:102AB00084A380E89AE1A6E0B0E081AB92ABA3AB3F
:102AC000B4AB80EA96E8A1E0B0E085AB96ABA7ABEB
:102AD000B0AF80E582AF13AE0895CF93DF93CDB74B
:102AE000DEB7C654D1090FB6F894DEBF0FBECDBF16
:102AF000789484B5826084BD84B5816084BD85B5D9
:102B0000826085BD85B5816085BD80916E008160E4
:102B100080936E001092810080918100826080938A
:102B2000810080918100816080938100809180008C
:102B30008160809380008091B10084608093B100B7
:102B40008091B00081608093B00080917A008460B1
:102B500080937A0080917A00826080937A008091DD
:102B60007A00816080937A0080917A0080688093F7
:102B70007A001092C100E0911C02F0911D0282E0E7
:102B80008083E0911802F09119021082E0911A02FC
:102B9000F0911B028FEC808310922402E0912002BE
:102BA000F091210286E08083E0911E02F0911F02E5
:102BB000808180618083E0911E02F0911F028081FC
:102BC00088608083E0911E02F0911F0280818068FE
:102BD0008083E0911E02F0911F0280818F7D8083AF
:102BE0008091D0029091D102892B41F52091BB02B6
:102BF0003091BC02C901079697FD079623E0959591
:102C000087952A95E1F72091B9023091BA028C019B
:102C1000029FC001039F900D129F900D11240E94EE
:102C200046239093D1028093D002892B39F466E930
:102C30007AE08CE092E00E941813FFCF0E946812A5
:102C40008091BB029091BC026091B9027091BA026E
:102C5000AC0181970CF449C14054510957FF02C09F
:102C60004F5F5F4F559547956255710977FF02C0D9
:102C70006F5F7F4F7595679510E4E12EF12C02E5AB
:102C800010E029E737E085EB92E00E94220A82E01B
:102C90008093D3028091CE029091CF02892B09F4C8
:102CA0003CC18DE38093D20210920702109206027B
:102CB00010920902109208021092050281E080939E
:102CC00004021092030261E082E10E94F70661E0D3
:102CD00083E10E94F7068091B9008E7F8093B9004E
:102CE0008091B9008D7F8093B90088E48093B8000B
:102CF00085E48093BC0084EC95E09093020280937D
:102D0000010285EC95E0909300028093FF01809191
:102D1000D90287FD1DC00E94A50561E08091D902FE
:102D20000E94F70661E070E080E090E00E94680792
:102D300060E08091D9020E94F7066AE070E080E0CE
:102D400090E00E94680761E08091D9020E94F70636
:102D50008091CE029091CF02892B09F495C16091A8
:102D6000E6027091E7028091E8029091E9020E94E8
:102D7000BB0E64E085E995E00E94B10F6091BB0253
:102D8000615085EB92E00E94661064E081E995E075
:102D90000E94B10F8091D30260E1813009F064E1BB
:102DA00085EB92E00E94661064E08DE895E00E9459
:102DB000B10F8FE88093EE028091B9029091BA0230
:102DC0008038910509F079C18091BB029091BC02D5
:102DD0008034910509F081C18091D302813009F0DE
:102DE0006AC18FE98093EE0212E16AED85EB92E011
:102DF0000E946610612F85EB92E00E94661061E8E8
:102E000085EB92E00E9466106091EE0285EB92E005
:102E10000E94661069ED85EB92E00E946610809139
:102E2000D30262E2813009F061EF85EB92E00E940B
:102E3000661066E087E895E00E94B10F8091CE02AF
:102E40009091CF02892B09F44CC16091EA027091F4
:102E5000EB028091EC029091ED020E94BB0E0E9469
:102E6000C81060ED77E080E090E00E9468070E9463
:102E7000681221E030E04AE050E06AE070E085EB63
:102E800092E00E94B1080E94C81060ED77E080E0F7
:102E900090E00E9468070E946812D12CC12C00911A
:102EA000BF021091C0028091BD029091BE02C8166F
:102EB000D9060CF020C101501109EE24E394F12C45
:102EC000960150E040E070E060E085EB92E00E9407
:102ED000DC0D0E94C81061E070E080E090E00E948C
:102EE000680714E0C10ED11CDACF4052510957FFD8
:102EF00002C04F5F5F4F559547956357710977FF44
:102F000002C06F5F7F4F75956795F0E2EF2EF12C51
:102F100003E710E029E935E0B6CE8091D7020E94A0
:102F2000A5058091D8020E94A5058091D702082EA0
:102F3000000C990BFC01EC53F54FE491F0E0EE0F1F
:102F4000FF1FE055F54F259134913093DF02209318
:102F5000DE02FC01E852F54FE491E093E402809137
:102F6000D802082E000C990BFC01EC53F54FE491AC
:102F7000F0E0EE0FFF1FE055F54FA591B491B0932F
:102F8000E102A093E002FC01E852F54FE491E093E6
:102F9000E5028C91E82BEC938091CC029091CD02CC
:102FA000892B89F11FB7F8948091FE01811124C00B
:102FB000EEECFAE08491E2EEFAE09491E82FF0E092
:102FC000EE0FFF1FE654F54FA591B491EC91E92364
:102FD00021F461E08AE00E94F7068AE00E94A505DC
:102FE0008CB580618CBD8CB580648CBD8DE00E94F9
:102FF000A5058BE00E94A5058091FE018F5F80935F
:10300000FE011FBF84CE8091D5020E94A50580914C
:10301000D6020E94A5058091D502082E000C990BBE
:10302000FC01EC53F54FE491F0E0EE0FFF1FE0558B
:10303000F54F259134913093DB022093DA02FC01A5
:10304000E852F54FE491E093E2028091D602082E17
:10305000000C990BFC01EC53F54FE491F0E0EE0FFE
:10306000FF1FE055F54FA591B491B093DD02A093F9
:10307000DC02FC01E852F54FE491E093E3028C910D
:10308000E095E823EC9343CE8091CC029091CD0261
:10309000892B31F08091EF029091F0020E94D50BC4
:1030A000E091E002F091E10290818091E50280954B
:1030B000892380835ECE8FEC95CE8036910569F4AE
:1030C0008091BB029091BC02409739F48091D30269
:1030D000813029F480E18093EE0212E086CE8FEAFF
:1030E000FACFE091E002F091E10280819091E50257
:1030F000892B8083B4CED12CC12C8091BF029091BA
:10310000C002C816D906F4F42091BD023091BE0267
:1031100021503109EE24E394F12C860150E040E087
:1031200070E060E085EB92E00E94DC0D0E94C81028
:1031300061E070E080E090E00E94680724E0C20E49
:10314000D11CDBCF6AEF70E080E090E00E9468075E
:103150000E946812D12CC12CA090BF02B090C00276
:1031600031E0A31AB1088091BD029091BE02C81649
:10317000D906CCF4EE24E394F12C10E000E09601A3
:10318000A50170E060E085EB92E00E94DC0D0E94FA
:10319000C81061E070E080E090E00E94680744E0C1
:1031A000C40ED11CD9CFB7FC22C02091BD023091F2
:1031B000BE02215031094091BF025091C0024150DE
:1031C0005109EE24E394F12C850170E060E085EB79
:1031D00092E00E94DC0D0E94C81061E070E080E087
:1031E00090E00E94680754E0A51AB108DCCF6AEFAE
:1031F00070E080E090E00E9468070E946812C09032
:10320000BD02D090BE0261E0C61AD108A090BF02F4
:10321000B090C00271E0A71AB108D7FC1DC0609140
:10322000BD027091BE0261507109EE24E394F12C4D
:1032300010E000E09601A50185EB92E00E94DC0D14
:103240000E94C81061E070E080E090E00E94680792
:1032500084E0C81AD108DACFB7FC22C04091BF027F
:103260005091C002415051096091BD027091BE025F
:1032700061507109EE24E394F12C850130E020E0E7
:1032800085EB92E00E94DC0D0E94C81061E070E0C6
:1032900080E090E00E94680794E0A91AB108DCCFB2
:1032A0006AEF70E080E090E00E9468070E94681278
:1032B000D12CC12C6091BD027091BE028091BF02E1
:1032C0009091C002C816D906D4F461507109EE2459
:1032D000E394F12C860130E020E050E040E085EB03
:1032E00092E00E94DC0D0E94C81061E070E080E076
:1032F00090E00E946807A4E0CA0ED11CDBCFD12C5D
:10330000C12C6091BD027091BE02C616D706F4F4BE
:103310000091BF021091C002015011096150710962
:10332000EE24E394F12C960150E040E085EB92E02E
:103330000E94DC0D0E94C81061E070E080E090E027
:103340000E946807B4E0CB0ED11CDBCF60ED77E0C4
:1033500080E090E00E9468070E946812D12CC12C86
:103360000091BF021091C002C80117FD019695950A
:103370008795C816D90604F5C601880F991F081B42
:10338000190B2091BD023091BE02281B390BEE248F
:10339000E394F12CA601B60185EB92E00E948D0D1D
:1033A0000E94C81061E070E080E090E00E94680731
:1033B000E2E0CE0ED11CD4CF60ED77E080E090E06B
:1033C0000E9468070E946812D12CC12C0091BF0294
:1033D0001091C002C80117FD019695958795C816F2
:1033E000D90604F5C601880F991F081B190B2091F7
:1033F000BD023091BE02281B390B42E0E42EF12CB5
:10340000A601B60185EB92E00E942B0D0E94C81028
:1034100061E070E080E090E00E946807F3E0CF0E8A
:10342000D11CD4CF60ED77E080E090E00E94680787
:103430000E9468121AA619A6D12CC12CE090BD02D8
:10344000F090BE024090BF025090C0024E145F0444
:103450002CF4C701F7FE05C0019603C0C20157FC5A
:10346000FBCF95958795C816D9060CF0D6C057FEA8
:1034700003C00FEF401A500A55944794F7FE03C05B
:103480001FEFE11AF10AF594E79401E010E00C193E
:103490001D0918A30F8F09A51AA51EA70DA721E0C6
:1034A00030E0A601440D551DB70185EB92E00E9466
:1034B0005E0921E030E0A2014C195D09B70185EBFE
:1034C00092E00E945E09B6016E0D7F1D21E030E0A2
:1034D000A20185EB92E00E945E09B7016C197D099B
:1034E00021E030E0A20185EB92E00E945E09160126
:1034F00010E000E021E030E03EA32DA3021513050B
:103500000CF079C04F8D58A157FD0FC051E0251A1E
:1035100031086DA57EA56E5F7F4F7EA76DA78F8D4D
:1035200098A1860F971F98A38F8F0F5F1F4FADA194
:10353000BEA11296BEA3ADA3EF8DF8A1EA0FFB1FAB
:10354000F8A3EF8F38016E0C7F1C21E030E05201B0
:10355000A20CB31CA501B30185EB92E00E945E09A9
:103560004701801A910A21E030E0A501B40185EB02
:1035700092E00E945E0921E030E05201A218B308F7
:10358000A501B30185EB92E00E945E0921E030E0E5
:10359000A501B40185EB92E00E945E095201A00EE4
:1035A000B11E21E030E0A5014701820C931CB4015B
:1035B00085EB92E00E945E0921E030E0A501570111
:1035C000A218B308B50185EB92E00E945E093201B2
:1035D000601A710A21E030E0A301B40185EB92E0AA
:1035E0000E945E0921E030E0A301B50185EB92E085
:1035F0000E945E0983CF0E94C81061E070E080E005
:1036000090E00E946807F2E0CF0ED11C09A51AA530
:10361000045011091AA709A711CF60ED77E080E0E7
:1036200090E00E9468070E9468128091BD0290910C
:10363000BE024091BF025091C002481759070CF0DA
:1036400046C097FD01966C01D594C7945601AA0C0B
:10365000BB1C1FEFA11AB10A1C141D04F4F58090C5
:10366000BF029090C00297FE03C02FEF821A920A09
:1036700095948794E090BD02F090BE02F7FE03C0DF
:103680003FEFE31AF30AF594E794A4014C195D099E
:1036900002E010E09501B70185EB92E00E948D0AEF
:1036A00010E000E023E0A601B401C7010E94D60AA1
:1036B0000E94C81061E070E080E090E00E9468071E
:1036C00043E0C41AD10856E0A51AB108C5CF57FF88
:1036D00002C04F5F5F4F6A01B7CF60ED77E080E0D7
:1036E00090E00E9468070E946812B12CA12C2090E3
:1036F000BF023090C002C10137FC019695958795B5
:103700000297A816B9060CF078C0610137FE03C015
:1037100063E0C60ED11CD594C794D594C794C50157
:10372000880F991F281A390AE090BD02F090BE0256
:10373000E81AF90A3601660C771C27014618570863
:1037400045018C0C9D1C01E010E09201A501B40123
:1037500085EB92E00E94860BC501820D931D98A314
:103760008F8FAC01415051099201B40185EB92E079
:103770000E94860B261837089101A401B50185EB3C
:1037800092E00E948D0AEA0CFB1CB701615071099E
:103790009101A40185EB92E00E948D0A21E0A6012F
:1037A000B401C4010E946209EC18FD0891E0E91A15
:1037B000F10822E0A601B401C7010E9462090F8D41
:1037C00018A10C191D090150110924E0A601B80126
:1037D000C7010E94620928E0A601B801C4010E9445
:1037E00062090E94C81061E070E080E090E00E94F1
:1037F0006807A2E0AA0EB11C7ACF60ED77E080E006
:1038000090E00E9468070E946812B12CA12C4090A1
:10381000BF025090C002C20157FC01969595879552
:103820000297A816B9060CF04BC0620157FE03C000
:10383000B3E0CB0ED11CD594C794D594C794950111
:10384000220F331F421A530A2090BD023090BE024D
:10385000221A330A3601660C771C45018C0C9D1C1C
:1038600091012619370982E0E82EF12C8201A50189
:10387000B40185EB92E00E942B0D46185708E1E059
:103880004E1A5108C501820D931D8C199D098201A4
:1038900021E0A601B40101970E94D60A22E0A60108
:1038A000B401C4010E94D60A0E94C81061E070E011
:1038B00080E090E00E946807F2E0AF0EB11CA7CF55
:1038C00060ED77E080E090E00E9468070E94681257
:1038D000912C812CA090BD02B090BE02C090BF027E
:1038E000D090C002CA14DB042CF4C501B7FE05C099
:1038F000019603C0C601D7FCFBCF95958795881626
:1039000099060CF03FC0D7FE03C00FEFC01AD00AD3
:10391000D594C79434016C0C7D1CB7FE03C01FEF17
:10392000A11AB10AB594A79414012A0C3B1C2501D5
:1039300048185908C818D908EE24E394F12C8301DB
:103940009201A601B50185EB92E00E94DC0D910188
:10395000A301B20185EB92E00E94DC0D8601950186
:10396000A301B10185EB92E00E94DC0D0E94C8101A
:1039700061E070E080E090E00E94680725E0820E40
:10398000911CA8CF60ED77E080E090E00E9468078E
:103990000E9468128091BD029091BE02E090BF0229
:1039A000F090C002E816F9060CF050C07C0197FFB9
:1039B00003C03FEFE31AF30AF594E7941E141F04C3
:1039C0000CF010C18091BF029091C00297FD01964A
:1039D000959587955701A80EB91E2091BD0230918B
:1039E000BE0237FF02C02F5F3F4F35952795470135
:1039F000820E931E6901CE18DF08BC016E197F0983
:103A000078A36F8FA616B7060CF488C4EF8DF8A1C3
:103A1000AE16BF0609F1442755274E195F09C501A7
:103A20006F8D78A1861B970B9AA789A7D401AC1933
:103A3000BD09BEA7ADA77AA369A3B8A2AF8E460100
:103A40006901BEAAADAA1EA21DA282C4F7FEB4CF10
:103A50004FEFE41AF40AB0CFC216D30654F0922FF7
:103A6000832F2C153D0514F49C2D8D2D6901292FD4
:103A7000382F8C149D042CF0281539050CF4940172
:103A80004601281939092F5F3F4F02E010E04F8DA2
:103A900058A1B40185EB92E00E94860B0E94C810E9
:103AA00061E070E080E090E00E94680745E0E41A81
:103AB000F10884CFC1018A199B09ADA5BEA58A9FD3
:103AC00020018B9F500C9A9F500C1124052C000C48
:103AD000660877089101E9A1FAA12E1B3F0B2E9DE4
:103AE000C0012F9D900D3E9D900D11248C01990FCA
:103AF000220B330B09A31AA32BA33CA32DA13EA198
:103B0000032E000C440B550B2DA33EA34FA358A727
:103B100049A55AA5052E000C660B770B49A75AA795
:103B20006BA77CA7BD01072E000C880B990B6DA716
:103B30007EA78FA798ABC7010F2C000CAA0BBB0B5D
:103B400089AB9AABABABBCABAF8DB8A1A215B3053B
:103B50000CF4A4CFC301B2012DA13EA14FA158A5E1
:103B60000E94DD228401020F131F69A17AA18BA19B
:103B70009CA129A53AA54BA55CA50E94DD22B60112
:103B8000620F731F2DA53EA54FA558A9420E531EC7
:103B9000641E751E89A19AA1ABA1BCA129A93AA94D
:103BA0004BA95CA9820F931FA41FB51F89A39AA3D9
:103BB000ABA3BCA3601771072CF0962F872FB80119
:103BC000092F182F061B170B98012F5F3F4F02E09C
:103BD00010E0A10185EB92E00E94860B3FEF231AD3
:103BE000330AB2CF60ED77E080E090E00E94680792
:103BF0000E94681281E08093C90201E010E01093F6
:103C0000C8020093C7021093C6020093C502109227
:103C1000C2021092C1021092C4021092C3026CE35D
:103C20007AE085EB92E00E9418131092C60210927F
:103C3000C5021093C8020093C7022AE043E050E097
:103C400060E070E085EB92E00E9499126EE285EBF5
:103C500092E00E94D90B2AE041E050E060E070E081
:103C600085EB92E00E9499122AE044E050E060E087
:103C700070E085EB92E00E9499126AE471E085EBB6
:103C800092E00E948A1222E0F22EF092C902109372
:103C9000C8020093C7021093C6020093C50269E3ED
:103CA0007AE085EB92E00E94C60520E14FEE5EEBE4
:103CB0006DEA7EED85EB92E00E9499126AE471E074
:103CC00085EB92E00E948A120E94C81060ED77E0B6
:103CD00080E090E00E9468070E946812F092C9029A
:103CE0001093C8020093C7021093C6020093C50246
:103CF0008AE090E09093C2028093C1021092C402C5
:103D00001092C30260E67AE085EB92E00E941813FD
:103D10000E94C81064E670E080E090E00E946807AE
:103D20008091CE029091CF02892B09F46BC26091F1
:103D3000E6027091E7028091E8029091E9020E9408
:103D4000BB0E62E08DE49AE00E94B10F60E085EB6B
:103D500092E00E94661060E085EB92E00E9466109F
:103D60006FE085EB92E00E94661063E08AE49AE0DF
:103D70000E94B10F8091CE029091CF02892B09F45D
:103D800058C26091EA027091EB028091EC0290912E
:103D9000ED020E94BB0E60ED77E080E090E00E94B3
:103DA00068070E94E31168EE73E080E090E00E94F3
:103DB00068078091CE029091CF02892B09F443C20B
:103DC0006091E6027091E7028091E8029091E90229
:103DD0000E94BB0E62E082E59AE00E94B10F60E0B3
:103DE00085EB92E00E94661060E085EB92E00E9415
:103DF00066106FE085EB92E00E94661063E08FE44E
:103E00009AE00E94B10F8091CE029091CF02892B4F
:103E100009F430C26091EA027091EB028091EC02E9
:103E20009091ED020E94BB0E60ED77E080E090E0A3
:103E30000E9468070E94E31168EE73E080E090E062
:103E40000E9468078091CE029091CF02892B09F4DD
:103E50001BC26091E6027091E7028091E8029091A6
:103E6000E9020E94BB0E62E088E59AE00E94B10F71
:103E70006091BB0285EB92E00E94661062E086E5ED
:103E80009AE00E94B10F60E085EB92E00E9466101C
:103E900060E085EB92E00E94661067E085EB92E0BF
:103EA0000E94661062E084E59AE00E94B10F809162
:103EB000CE029091CF02892B09F4FDC16091EA02F4
:103EC0007091EB028091EC029091ED020E94BB0E8A
:103ED00060ED77E080E090E00E9468078091CE027C
:103EE0009091CF02892B09F4F0C16091E6027091A4
:103EF000E7028091E8029091E9020E94BB0E62E025
:103F00008EE59AE00E94B10F6091BB0285EB92E0D2
:103F10000E94661062E08CE59AE00E94B10F60E0BA
:103F200085EB92E00E94661060E085EB92E00E94D3
:103F3000661067E085EB92E00E94661062E08AE519
:103F40009AE00E94B10F8091CE029091CF02892B0E
:103F500009F4D2C16091EA027091EB028091EC0207
:103F60009091ED020E94BB0E60ED77E080E090E062
:103F70000E9468070E94E31168EE73E080E090E021
:103F80000E9468070E9468128091BF029091C0024F
:103F9000AC014051510957FF02C04F5F5F4F55952B
:103FA00047958091BD029091BE02BC01605171099C
:103FB00077FF02C06F5F7F4F75956795F0E1EF2E39
:103FC000F12C00E110E026E73AE085EB92E00E9458
:103FD000220A0E94C81068EE73E080E090E00E9420
:103FE000680761E085EB92E00E94291268EE73E0B9
:103FF00080E090E00E94680760E085EB92E00E941C
:10400000291268EE73E080E090E00E9468078E015C
:104010000F5F1F4FAAE07A2EB0EF6B2E85E0282E9F
:10402000312C412C512CC090BD02D090BE020D2CE1
:10403000000CEE08FF0831EF832E99249A94A92CE6
:10404000B92C52EFC5165FEFD506E506F5068CF0E4
:104050000E948522A7019601215F3F4F4F4F5F4F7E
:104060000E94DD224B015C01AFE08A1A9108A10891
:10407000B108F801808261820E948522A20191012B
:104080000E94DD226B017C01FFEFCF1ADF0AEF0AED
:10409000FF0AD8011296CC9262E77AE08CE092E0B7
:1040A0000E94C605882D880C990B0E9408136DE6A6
:1040B0007AE08CE092E00E94C60580EF9FEF0E94BC
:1040C000081367E67AE08CE092E00E94C605F7FEEE
:1040D0001DC1C701B6010E94E5126AE471E08CE0DF
:1040E00092E00E948A127A940D5F1F4F71109BCF4D
:1040F000E1E0F0E0EC0FFD1F7E96F8A3EF8F90EF6C
:10410000392E25E0422E512C612C712C0E94681210
:104110008E010F5F1F4F6801D60111964C911197C8
:10412000042E000C550B6C91062E000C770B80E1D1
:10413000E82EF12C00E110E026E73AE085EB92E072
:104140000E94220AB3E0CB0ED11CEF8DF8A1EC1532
:10415000FD0511F70E94C81068EC70E080E090E067
:104160000E9468078E010F5F1F4FD80111968C9136
:10417000119712969C911297890F11968C93082E85
:10418000000C990B2091BF023091C0028217930757
:1041900094F18090BD029090BE02092C000CAA08F8
:1041A000BB0881EF9FEFAFEFBFEFB2EF8B16BFEF12
:1041B0009B06AB06BB067CF00E948522A5019401FC
:1041C000215F3F4F4F4F5F4F0E94DD22DC01CB014B
:1041D0000F97A109B109F801808331820E948522DD
:1041E000A30192010E94DD226F5F7F4F8F4F9F4F8F
:1041F000D80112966C930D5F1F4FC016D10609F0BF
:10420000B4CF84CF8091CC029091CD02892B31F034
:104210008091EF029091F0020E94D50BE091E002B4
:10422000F091E10290818091E5028095892380835D
:1042300088CDE091E002F091E10280819091E50269
:10424000892B8083A8CD8091CC029091CD02892BBF
:1042500031F08091EF029091F0020E94D50BE09135
:10426000E002F091E10290818091E502809589233E
:104270008083B0CDE091E002F091E10280819091E5
:10428000E502892B8083D0CD8091CC029091CD0224
:10429000892B31F08091EF029091F0020E94D50BB2
:1042A000E091E002F091E10290818091E502809539
:1042B00089238083D8CDE091E002F091E1028081F2
:1042C0009091E502892B808303CE8091CC0290915E
:1042D000CD02892B31F08091EF029091F0020E9483
:1042E000D50BE091E002F091E10290818091E5022E
:1042F00080958923808303CEE091E002F091E10272
:1043000080819091E502892B80832ECE2AE0B7012F
:10431000A6018CE092E00E949912DFCEA4014C1914
:104320005D09EF8DF8A1EA19FB09FAA7E9A70027B3
:1043300011270E191F091EA70DA7FEA3EDA39501B6
:10434000215031093EAB2DABBAA2A9A290E080E08A
:1043500029A03AA019AA1AAA1BAA1CAA412C512CBE
:1043600032018C01990F220B330B0FAB18AF29AF21
:104370003AAF69A57AA5072E000C880B990B6BAF95
:104380007CAF8DAF9EAFCA01550FAA0BBB0B239616
:104390008CAF9DAFAEAFBFAF239787010F2C000C42
:1043A000220B330B27960CAF1DAF2EAF3FAF2797D5
:1043B0002DA93EA9221533050CF47CCBC301B20113
:1043C0002FA938AD49AD5AAD0E94DD228601020FFA
:1043D000131F69A97AA98BA99CA92BAD3CAD4DAD42
:1043E0005EAD0E94DD22B601620F731F23968CAD75
:1043F0009DADAEADBFAD2397480E591E6A1E7B1E04
:1044000029A93AA94BA95CA927968CAD9DADAEAD63
:10441000BFAD2797280F391F4A1F5B1F29AB3AAB47
:104420004BAB5CAB601771072CF0962F872FB80150
:10443000092F182F061B170B98012F5F3F4F02E023
:1044400010E0A10185EB92E00E94860B9FEF291AF4
:10445000390AAECF82E391E09093B6028093B50221
:104460008091D0029091D102009711F00C94E22338
:1044700008958F929F92AF92BF92CF92DF92EF9268
:10448000FF92CF93DF93EC01688179818A819B81D0
:10449000611571058105910521F464E279ED8BE5E3
:1044A00097E02DE133EF41E050E00E94DD22490129
:1044B0005A019B01AC01A7EAB1E40E94FC226B0106
:1044C0007C01ACEEB4EFA50194010E940A23C60E54
:1044D000D71EE81EF91EF7FE06C081E0C81AD108F3
:1044E000E10880E8F80AC882D982EA82FB82C70123
:1044F000B6019F77DF91CF91FF90EF90DF90CF9043
:10450000BF90AF909F908F9008958F929F92AF929F
:10451000BF92CF92DF92EF92FF9260910001709173
:1045200001018091020190910301611571058105DE
:10453000910521F464E279ED8BE597E02DE133EF0D
:1045400041E050E00E94DD2249015A019B01AC018B
:10455000A7EAB1E40E94FC226B017C01ACEEB4EF4F
:10456000A50194010E940A23C60ED71EE81EF91E5B
:10457000F7FE06C081E0C81AD108E10880E8F80A11
:10458000C0920001D0920101E0920201F092030179
:10459000C701B6019F77FF90EF90DF90CF90BF905B
:1045A000AF909F908F9008956093000170930101E8
:1045B00080930201909303010895052E97FB1EF44A
:1045C00000940E94F42257FD07D00E940F2307FC9D
:1045D00003D04EF40C94F4225095409530952195DB
:1045E0003F4F4F4F5F4F089590958095709561951F
:1045F0007F4F8F4F9F4F08950E943123A59F900DAD
:10460000B49F900DA49F800D911D11240895B7FFB4
:104610000C94FC220E94FC22821B930B0895A1E2C1
:104620001A2EAA1BBB1BFD010DC0AA1FBB1FEE1F2C
:10463000FF1FA217B307E407F50720F0A21BB30B77
:10464000E40BF50B661F771F881F991F1A9469F7F3
:1046500060957095809590959B01AC01BD01CF014F
:104660000895A29FB001B39FC001A39F700D811D4B
:104670001124911DB29F700D811D1124911D08956B
:10468000EE0FFF1F0590F491E02D09940F931F93F7
:10469000CF93DF938230910510F482E090E0E091B7
:1046A000F302F091F40230E020E0B0E0A0E03097B7
:1046B00099F42115310509F44AC0281B390B24301F
:1046C0003105D8F58A819B816115710589F1FB015E
:1046D00093838283FE0111C0408151810281138145
:1046E00048175907E0F04817590799F4109761F0F7
:1046F00012960C93129713961C933296CF01DF916A
:10470000CF911F910F9108950093F3021093F4023B
:10471000F4CF2115310551F04217530738F0A901A4
:10472000DB019A01BD01DF01F801C1CFEF01F9CF33
:104730009093F4028093F302CDCFFE01E20FF31FBA
:10474000819391932250310939832883D7CF2091C7
:10475000F1023091F202232B41F4209106013091B5
:1047600007013093F2022093F1022091040130916D
:1047700005012115310541F42DB73EB740910801DF
:1047800050910901241B350BE091F102F091F202E6
:10479000E217F307A0F42E1B3F0B2817390778F018
:1047A000AC014E5F5F4F2417350748F04E0F5F1F77
:1047B0005093F2024093F102819391939FCFF0E0E6
:1047C000E0E09CCFCF93DF930097E9F0FC013297B4
:1047D00013821282A091F302B091F402ED0130E055
:1047E00020E01097A1F420813181820F931F209146
:1047F000F1023091F2022817390709F061C0F093F5
:10480000F202E093F102DF91CF910895EA01CE1711
:10481000DF07E8F54A815B819E0141155105B1F73B
:10482000E901FB83EA8349915991C40FD51FEC1725
:10483000FD0761F4808191810296840F951FE90143
:1048400099838883828193819B838A83F0E0E0E06F
:1048500012968D919C9113970097B9F52D913C91EB
:104860001197CD010296820F931F2091F102309192
:10487000F2022817390739F6309751F51092F402F1
:104880001092F302B093F202A093F102BCCFD38353
:10489000C28340815181840F951FC817D90761F4E5
:1048A0004E5F5F4F88819981480F591F5183408324
:1048B0008A819B81938382832115310509F0B0CFD2
:1048C000F093F402E093F3029ECFFD01DC01C0CF30
:1048D00013821282D7CF81E090E0F8940C94772471
:1048E000DC0101C06D9341505040E0F7089515E0A0
:1048F000CAE7D5E004C0FE010E9440232196CB37D1
:08490000D107C9F7F894FFCFBD
:10490800010000000000F5028000000000008A0697
:10491800EA051706D706480626063A0600000000EC
:10492800250FF80E6512CE0EF10EDE0ECF0E00002A
:104938000000D90BEA056512890E5E09DC0D8D0AA7
:0E494800860B8D0D2B0D0E0D29120D0A000091
:00000001FF
